{"abi":[{"type":"constructor","inputs":[{"name":"_arbiter","type":"address","internalType":"address"}],"stateMutability":"nonpayable"},{"type":"function","name":"DISPUTE_WINDOW","inputs":[],"outputs":[{"name":"","type":"uint256","internalType":"uint256"}],"stateMutability":"view"},{"type":"function","name":"arbiter","inputs":[],"outputs":[{"name":"","type":"address","internalType":"address"}],"stateMutability":"view"},{"type":"function","name":"autoRelease","inputs":[{"name":"jobId","type":"uint256","internalType":"uint256"}],"outputs":[],"stateMutability":"nonpayable"},{"type":"function","name":"createJob","inputs":[{"name":"seller","type":"address","internalType":"address"},{"name":"token","type":"address","internalType":"address"},{"name":"amount","type":"uint256","internalType":"uint256"},{"name":"deadline","type":"uint256","internalType":"uint256"},{"name":"milestoneAmounts","type":"uint256[]","internalType":"uint256[]"}],"outputs":[{"name":"jobId","type":"uint256","internalType":"uint256"}],"stateMutability":"nonpayable"},{"type":"function","name":"dispute","inputs":[{"name":"jobId","type":"uint256","internalType":"uint256"}],"outputs":[],"stateMutability":"nonpayable"},{"type":"function","name":"getJob","inputs":[{"name":"jobId","type":"uint256","internalType":"uint256"}],"outputs":[{"name":"","type":"tuple","internalType":"struct AgentEscrowV2Fixed.Job","components":[{"name":"buyer","type":"address","internalType":"address"},{"name":"seller","type":"address","internalType":"address"},{"name":"token","type":"address","internalType":"address"},{"name":"amount","type":"uint256","internalType":"uint256"},{"name":"deadline","type":"uint256","internalType":"uint256"},{"name":"workHash","type":"bytes32","internalType":"bytes32"},{"name":"submittedAt","type":"uint64","internalType":"uint64"},{"name":"status","type":"uint8","internalType":"enum AgentEscrowV2Fixed.Status"}]}],"stateMutability":"view"},{"type":"function","name":"getMilestones","inputs":[{"name":"jobId","type":"uint256","internalType":"uint256"}],"outputs":[{"name":"","type":"uint256[]","internalType":"uint256[]"}],"stateMutability":"view"},{"type":"function","name":"jobCount","inputs":[],"outputs":[{"name":"","type":"uint256","internalType":"uint256"}],"stateMutability":"view"},{"type":"function","name":"jobs","inputs":[{"name":"","type":"uint256","internalType":"uint256"}],"outputs":[{"name":"buyer","type":"address","internalType":"address"},{"name":"seller","type":"address","internalType":"address"},{"name":"token","type":"address","internalType":"address"},{"name":"amount","type":"uint256","internalType":"uint256"},{"name":"deadline","type":"uint256","internalType":"uint256"},{"name":"workHash","type":"bytes32","internalType":"bytes32"},{"name":"submittedAt","type":"uint64","internalType":"uint64"},{"name":"status","type":"uint8","internalType":"enum AgentEscrowV2Fixed.Status"}],"stateMutability":"view"},{"type":"function","name":"milestones","inputs":[{"name":"","type":"uint256","internalType":"uint256"},{"name":"","type":"uint256","internalType":"uint256"}],"outputs":[{"name":"","type":"uint256","internalType":"uint256"}],"stateMutability":"view"},{"type":"function","name":"nextMilestone","inputs":[{"name":"","type":"uint256","internalType":"uint256"}],"outputs":[{"name":"","type":"uint256","internalType":"uint256"}],"stateMutability":"view"},{"type":"function","name":"refund","inputs":[{"name":"jobId","type":"uint256","internalType":"uint256"}],"outputs":[],"stateMutability":"nonpayable"},{"type":"function","name":"release","inputs":[{"name":"jobId","type":"uint256","internalType":"uint256"}],"outputs":[],"stateMutability":"nonpayable"},{"type":"function","name":"releaseMilestone","inputs":[{"name":"jobId","type":"uint256","internalType":"uint256"}],"outputs":[],"stateMutability":"nonpayable"},{"type":"function","name":"releasedAmount","inputs":[{"name":"","type":"uint256","internalType":"uint256"}],"outputs":[{"name":"","type":"uint256","internalType":"uint256"}],"stateMutability":"view"},{"type":"function","name":"resolveDispute","inputs":[{"name":"jobId","type":"uint256","internalType":"uint256"},{"name":"payoutSeller","type":"bool","internalType":"bool"}],"outputs":[],"stateMutability":"nonpayable"},{"type":"function","name":"submitWork","inputs":[{"name":"jobId","type":"uint256","internalType":"uint256"},{"name":"workHash","type":"bytes32","internalType":"bytes32"}],"outputs":[],"stateMutability":"nonpayable"},{"type":"event","name":"AutoReleased","inputs":[{"name":"jobId","type":"uint256","indexed":true,"internalType":"uint256"}],"anonymous":false},{"type":"event","name":"DisputeResolved","inputs":[{"name":"jobId","type":"uint256","indexed":true,"internalType":"uint256"},{"name":"winner","type":"address","indexed":false,"internalType":"address"}],"anonymous":false},{"type":"event","name":"Disputed","inputs":[{"name":"jobId","type":"uint256","indexed":true,"internalType":"uint256"}],"anonymous":false},{"type":"event","name":"JobCreated","inputs":[{"name":"jobId","type":"uint256","indexed":true,"internalType":"uint256"},{"name":"buyer","type":"address","indexed":false,"internalType":"address"},{"name":"seller","type":"address","indexed":false,"internalType":"address"},{"name":"token","type":"address","indexed":false,"internalType":"address"},{"name":"amount","type":"uint256","indexed":false,"internalType":"uint256"},{"name":"deadline","type":"uint256","indexed":false,"internalType":"uint256"}],"anonymous":false},{"type":"event","name":"MilestoneReleased","inputs":[{"name":"jobId","type":"uint256","indexed":true,"internalType":"uint256"},{"name":"milestoneIdx","type":"uint256","indexed":false,"internalType":"uint256"},{"name":"amount","type":"uint256","indexed":false,"internalType":"uint256"}],"anonymous":false},{"type":"event","name":"Refunded","inputs":[{"name":"jobId","type":"uint256","indexed":true,"internalType":"uint256"},{"name":"buyer","type":"address","indexed":false,"internalType":"address"},{"name":"amount","type":"uint256","indexed":false,"internalType":"uint256"}],"anonymous":false},{"type":"event","name":"Released","inputs":[{"name":"jobId","type":"uint256","indexed":true,"internalType":"uint256"},{"name":"seller","type":"address","indexed":false,"internalType":"address"},{"name":"amount","type":"uint256","indexed":false,"internalType":"uint256"}],"anonymous":false},{"type":"event","name":"WorkSubmitted","inputs":[{"name":"jobId","type":"uint256","indexed":true,"internalType":"uint256"},{"name":"workHash","type":"bytes32","indexed":false,"internalType":"bytes32"}],"anonymous":false}],"bytecode":{"object":"0x60a060405234801561000f575f5ffd5b506040516135c23803806135c283398181016040528101906100319190610137565b5f73ffffffffffffffffffffffffffffffffffffffff168173ffffffffffffffffffffffffffffffffffffffff160361009f576040517f08c379a0000000000000000000000000000000000000000000000000000000008152600401610096906101bc565b60405180910390fd5b8073ffffffffffffffffffffffffffffffffffffffff1660808173ffffffffffffffffffffffffffffffffffffffff1681525050506101da565b5f5ffd5b5f73ffffffffffffffffffffffffffffffffffffffff82169050919050565b5f610106826100dd565b9050919050565b610116816100fc565b8114610120575f5ffd5b50565b5f815190506101318161010d565b92915050565b5f6020828403121561014c5761014b6100d9565b5b5f61015984828501610123565b91505092915050565b5f82825260208201905092915050565b7f496e76616c6964206172626974657200000000000000000000000000000000005f82015250565b5f6101a6600f83610162565b91506101b182610172565b602082019050919050565b5f6020820190508181035f8301526101d38161019a565b9050919050565b6080516133c96101f95f395f8181610c5d0152611ae001526133c95ff3fe608060405234801561000f575f5ffd5b5060043610610109575f3560e01c806342c549c0116100a057806395a018d91161006f57806395a018d9146102b6578063bf22c457146102e6578063c04b45e914610316578063f585dc5714610346578063fe25e00a1461036457610109565b806342c549c014610230578063459b860e146102605780634c5d8a0f1461027c57806386d6282c1461029a57610109565b8063278ecde1116100dc578063278ecde1146101c0578063317debf5146101dc57806334b25ee2146101f857806337bdc99b1461021457610109565b80630a9eeded1461010d578063111730d114610129578063180aedf3146101595780631c376c6314610190575b5f5ffd5b61012760048036038101906101229190611fd9565b610382565b005b610143600480360381019061013e9190612017565b6105c6565b6040516101509190612051565b60405180910390f35b610173600480360381019061016e9190612017565b6105db565b60405161018798979695949392919061214d565b60405180910390f35b6101aa60048036038101906101a591906121c9565b61069c565b6040516101b79190612051565b60405180910390f35b6101da60048036038101906101d59190612017565b6106c7565b005b6101f660048036038101906101f19190612017565b61092d565b005b610212600480360381019061020d919061223c565b610c5b565b005b61022e60048036038101906102299190612017565b610fac565b005b61024a60048036038101906102459190612017565b6110d6565b6040516102579190612331565b60405180910390f35b61027a60048036038101906102759190612017565b61113d565b005b610284611275565b6040516102919190612051565b60405180910390f35b6102b460048036038101906102af9190612017565b61127a565b005b6102d060048036038101906102cb91906123dc565b611466565b6040516102dd9190612051565b60405180910390f35b61030060048036038101906102fb9190612017565b61190e565b60405161030d919061254e565b60405180910390f35b610330600480360381019061032b9190612017565b611ac2565b60405161033d9190612051565b60405180910390f35b61034e611ad7565b60405161035b9190612051565b60405180910390f35b61036c611ade565b6040516103799190612568565b60405180910390f35b5f60015f8481526020019081526020015f209050806001015f9054906101000a900473ffffffffffffffffffffffffffffffffffffffff1673ffffffffffffffffffffffffffffffffffffffff163373ffffffffffffffffffffffffffffffffffffffff1614610427576040517f08c379a000000000000000000000000000000000000000000000000000000000815260040161041e906125db565b60405180910390fd5b5f600481111561043a576104396120da565b5b8160060160089054906101000a900460ff16600481111561045e5761045d6120da565b5b1461049e576040517f08c379a000000000000000000000000000000000000000000000000000000000815260040161049590612643565b60405180910390fd5b80600401544211156104e5576040517f08c379a00000000000000000000000000000000000000000000000000000000081526004016104dc906126ab565b60405180910390fd5b5f5f1b8203610529576040517f08c379a000000000000000000000000000000000000000000000000000000000815260040161052090612713565b60405180910390fd5b81816005018190555042816006015f6101000a81548167ffffffffffffffff021916908367ffffffffffffffff16021790555060018160060160086101000a81548160ff02191690836004811115610584576105836120da565b5b0217905550827f8b518f883474495e3b14f695aed6ef569f74b362c5faa3c4a64f1e0f1a3b9eae836040516105b99190612731565b60405180910390a2505050565b6004602052805f5260405f205f915090505481565b6001602052805f5260405f205f91509050805f015f9054906101000a900473ffffffffffffffffffffffffffffffffffffffff1690806001015f9054906101000a900473ffffffffffffffffffffffffffffffffffffffff1690806002015f9054906101000a900473ffffffffffffffffffffffffffffffffffffffff1690806003015490806004015490806005015490806006015f9054906101000a900467ffffffffffffffff16908060060160089054906101000a900460ff16905088565b6002602052815f5260405f2081815481106106b5575f80fd5b905f5260205f20015f91509150505481565b5f60015f8381526020019081526020015f209050805f015f9054906101000a900473ffffffffffffffffffffffffffffffffffffffff1673ffffffffffffffffffffffffffffffffffffffff163373ffffffffffffffffffffffffffffffffffffffff161461076b576040517f08c379a000000000000000000000000000000000000000000000000000000000815260040161076290612794565b60405180910390fd5b5f600481111561077e5761077d6120da565b5b8160060160089054906101000a900460ff1660048111156107a2576107a16120da565b5b146107e2576040517f08c379a00000000000000000000000000000000000000000000000000000000081526004016107d9906127fc565b60405180910390fd5b80600401544211610828576040517f08c379a000000000000000000000000000000000000000000000000000000000815260040161081f90612864565b60405180910390fd5b60038160060160086101000a81548160ff021916908360048111156108505761084f6120da565b5b02179055506108c9815f015f9054906101000a900473ffffffffffffffffffffffffffffffffffffffff168260030154836002015f9054906101000a900473ffffffffffffffffffffffffffffffffffffffff1673ffffffffffffffffffffffffffffffffffffffff16611b029092919063ffffffff16565b817f7ca5472b7ea78c2c0141c5a12ee6d170cf4ce8ed06be3d22c8252ddfc7a6a2c4825f015f9054906101000a900473ffffffffffffffffffffffffffffffffffffffff168360030154604051610921929190612882565b60405180910390a25050565b5f60015f8381526020019081526020015f209050805f015f9054906101000a900473ffffffffffffffffffffffffffffffffffffffff1673ffffffffffffffffffffffffffffffffffffffff163373ffffffffffffffffffffffffffffffffffffffff16146109d1576040517f08c379a00000000000000000000000000000000000000000000000000000000081526004016109c890612794565b60405180910390fd5b5f60048111156109e4576109e36120da565b5b8160060160089054906101000a900460ff166004811115610a0857610a076120da565b5b1480610a49575060016004811115610a2357610a226120da565b5b8160060160089054906101000a900460ff166004811115610a4757610a466120da565b5b145b610a88576040517f08c379a0000000000000000000000000000000000000000000000000000000008152600401610a7f906128f3565b60405180910390fd5b5f60025f8481526020019081526020015f2090505f818054905011610ae2576040517f08c379a0000000000000000000000000000000000000000000000000000000008152600401610ad99061295b565b60405180910390fd5b5f60035f8581526020019081526020015f2054905081805490508110610b3d576040517f08c379a0000000000000000000000000000000000000000000000000000000008152600401610b34906129c3565b60405180910390fd5b60035f8581526020019081526020015f205f815480929190610b5e90612a0e565b91905055505f828281548110610b7757610b76612a55565b5b905f5260205f20015490508060045f8781526020019081526020015f205f828254610ba29190612a82565b92505081905550610c1a846001015f9054906101000a900473ffffffffffffffffffffffffffffffffffffffff1682866002015f9054906101000a900473ffffffffffffffffffffffffffffffffffffffff1673ffffffffffffffffffffffffffffffffffffffff16611b029092919063ffffffff16565b847fd33fcd27cbfb73a2d9058c968b560ccb306500bf536133802048489ecc7355e98383604051610c4c929190612ab5565b60405180910390a25050505050565b7f000000000000000000000000000000000000000000000000000000000000000073ffffffffffffffffffffffffffffffffffffffff163373ffffffffffffffffffffffffffffffffffffffff1614610ce9576040517f08c379a0000000000000000000000000000000000000000000000000000000008152600401610ce090612b26565b60405180910390fd5b5f60015f8481526020019081526020015f209050600480811115610d1057610d0f6120da565b5b8160060160089054906101000a900460ff166004811115610d3457610d336120da565b5b14610d74576040517f08c379a0000000000000000000000000000000000000000000000000000000008152600401610d6b90612b8e565b60405180910390fd5b5f60045f8581526020019081526020015f20548260030154610d969190612bac565b90508215610ea55760028260060160086101000a81548160ff02191690836004811115610dc657610dc56120da565b5b02179055505f811115610e4557610e44826001015f9054906101000a900473ffffffffffffffffffffffffffffffffffffffff1682846002015f9054906101000a900473ffffffffffffffffffffffffffffffffffffffff1673ffffffffffffffffffffffffffffffffffffffff16611b029092919063ffffffff16565b5b837ff77ceb5e091d2da041bc760667f9d5fe7a756949eaf29250ad0e60ca6f4c27d9836001015f9054906101000a900473ffffffffffffffffffffffffffffffffffffffff16604051610e989190612568565b60405180910390a2610fa6565b60038260060160086101000a81548160ff02191690836004811115610ecd57610ecc6120da565b5b02179055505f811115610f4b57610f4a825f015f9054906101000a900473ffffffffffffffffffffffffffffffffffffffff1682846002015f9054906101000a900473ffffffffffffffffffffffffffffffffffffffff1673ffffffffffffffffffffffffffffffffffffffff16611b029092919063ffffffff16565b5b837ff77ceb5e091d2da041bc760667f9d5fe7a756949eaf29250ad0e60ca6f4c27d9835f015f9054906101000a900473ffffffffffffffffffffffffffffffffffffffff16604051610f9d9190612568565b60405180910390a25b50505050565b5f60015f8381526020019081526020015f209050805f015f9054906101000a900473ffffffffffffffffffffffffffffffffffffffff1673ffffffffffffffffffffffffffffffffffffffff163373ffffffffffffffffffffffffffffffffffffffff1614611050576040517f08c379a000000000000000000000000000000000000000000000000000000000815260040161104790612794565b60405180910390fd5b60016004811115611064576110636120da565b5b8160060160089054906101000a900460ff166004811115611088576110876120da565b5b146110c8576040517f08c379a00000000000000000000000000000000000000000000000000000000081526004016110bf90612c29565b60405180910390fd5b6110d28183611c51565b5050565b606060025f8381526020019081526020015f2080548060200260200160405190810160405280929190818152602001828054801561113157602002820191905f5260205f20905b81548152602001906001019080831161111d575b50505050509050919050565b5f60015f8381526020019081526020015f20905060016004811115611165576111646120da565b5b8160060160089054906101000a900460ff166004811115611189576111886120da565b5b146111c9576040517f08c379a00000000000000000000000000000000000000000000000000000000081526004016111c090612c29565b60405180910390fd5b6202a300816006015f9054906101000a900467ffffffffffffffff1667ffffffffffffffff166111f99190612a82565b421161123a576040517f08c379a000000000000000000000000000000000000000000000000000000000815260040161123190612c91565b60405180910390fd5b6112448183611c51565b817f93fb721c2c02adcc629c450452332bd9fa1dfbc41825cf28709bf21e8d19363f60405160405180910390a25050565b5f5481565b5f60015f8381526020019081526020015f209050805f015f9054906101000a900473ffffffffffffffffffffffffffffffffffffffff1673ffffffffffffffffffffffffffffffffffffffff163373ffffffffffffffffffffffffffffffffffffffff161461131e576040517f08c379a000000000000000000000000000000000000000000000000000000000815260040161131590612794565b60405180910390fd5b60016004811115611332576113316120da565b5b8160060160089054906101000a900460ff166004811115611356576113556120da565b5b14611396576040517f08c379a000000000000000000000000000000000000000000000000000000000815260040161138d90612c29565b60405180910390fd5b6202a300816006015f9054906101000a900467ffffffffffffffff1667ffffffffffffffff166113c69190612a82565b421115611408576040517f08c379a00000000000000000000000000000000000000000000000000000000081526004016113ff90612cf9565b60405180910390fd5b60048160060160086101000a81548160ff021916908360048111156114305761142f6120da565b5b0217905550817f7e3d476b0ad3176eefadbd6672356ef3884fad75f1344623a88d4a808784233660405160405180910390a25050565b5f4284116114a9576040517f08c379a00000000000000000000000000000000000000000000000000000000081526004016114a090612d61565b60405180910390fd5b5f85116114eb576040517f08c379a00000000000000000000000000000000000000000000000000000000081526004016114e290612dc9565b60405180910390fd5b5f73ffffffffffffffffffffffffffffffffffffffff168773ffffffffffffffffffffffffffffffffffffffff1603611559576040517f08c379a000000000000000000000000000000000000000000000000000000000815260040161155090612e31565b60405180910390fd5b3373ffffffffffffffffffffffffffffffffffffffff168773ffffffffffffffffffffffffffffffffffffffff16036115c7576040517f08c379a00000000000000000000000000000000000000000000000000000000081526004016115be90612e99565b60405180910390fd5b5f838390501115611659575f5f5b84849050811015611614578484828181106115f3576115f2612a55565b5b90506020020135826116059190612a82565b915080806001019150506115d5565b50858114611657576040517f08c379a000000000000000000000000000000000000000000000000000000000815260040161164e90612f01565b60405180910390fd5b505b6116863330878973ffffffffffffffffffffffffffffffffffffffff16611d7e909392919063ffffffff16565b5f5f81548092919061169790612a0e565b9190505590506040518061010001604052803373ffffffffffffffffffffffffffffffffffffffff1681526020018873ffffffffffffffffffffffffffffffffffffffff1681526020018773ffffffffffffffffffffffffffffffffffffffff1681526020018681526020018581526020015f5f1b81526020015f67ffffffffffffffff1681526020015f6004811115611734576117336120da565b5b81525060015f8381526020019081526020015f205f820151815f015f6101000a81548173ffffffffffffffffffffffffffffffffffffffff021916908373ffffffffffffffffffffffffffffffffffffffff1602179055506020820151816001015f6101000a81548173ffffffffffffffffffffffffffffffffffffffff021916908373ffffffffffffffffffffffffffffffffffffffff1602179055506040820151816002015f6101000a81548173ffffffffffffffffffffffffffffffffffffffff021916908373ffffffffffffffffffffffffffffffffffffffff160217905550606082015181600301556080820151816004015560a0820151816005015560c0820151816006015f6101000a81548167ffffffffffffffff021916908367ffffffffffffffff16021790555060e08201518160060160086101000a81548160ff0219169083600481111561188f5761188e6120da565b5b02179055509050505f8383905011156118c457828260025f8481526020019081526020015f2091826118c2929190613110565b505b807fe630f8de1b7900c0a784c0dc1626fc527740c4d1a1c7ba6827642272f4b5a22833898989896040516118fc959493929190613196565b60405180910390a29695505050505050565b611916611ed0565b60015f8381526020019081526020015f20604051806101000160405290815f82015f9054906101000a900473ffffffffffffffffffffffffffffffffffffffff1673ffffffffffffffffffffffffffffffffffffffff1673ffffffffffffffffffffffffffffffffffffffff168152602001600182015f9054906101000a900473ffffffffffffffffffffffffffffffffffffffff1673ffffffffffffffffffffffffffffffffffffffff1673ffffffffffffffffffffffffffffffffffffffff168152602001600282015f9054906101000a900473ffffffffffffffffffffffffffffffffffffffff1673ffffffffffffffffffffffffffffffffffffffff1673ffffffffffffffffffffffffffffffffffffffff168152602001600382015481526020016004820154815260200160058201548152602001600682015f9054906101000a900467ffffffffffffffff1667ffffffffffffffff1667ffffffffffffffff1681526020016006820160089054906101000a900460ff166004811115611aa557611aa46120da565b5b6004811115611ab757611ab66120da565b5b815250509050919050565b6003602052805f5260405f205f915090505481565b6202a30081565b7f000000000000000000000000000000000000000000000000000000000000000081565b5f5f8473ffffffffffffffffffffffffffffffffffffffff1663a9059cbb60e01b8585604051602401611b36929190612882565b604051602081830303815290604052907bffffffffffffffffffffffffffffffffffffffffffffffffffffffff19166020820180517bffffffffffffffffffffffffffffffffffffffffffffffffffffffff8381831617835250505050604051611ba09190613239565b5f604051808303815f865af19150503d805f8114611bd9576040519150601f19603f3d011682016040523d82523d5f602084013e611bde565b606091505b5091509150818015611c0b57505f81511480611c0a575080806020019051810190611c099190613263565b5b5b611c4a576040517f08c379a0000000000000000000000000000000000000000000000000000000008152600401611c41906132d8565b60405180910390fd5b5050505050565b60028260060160086101000a81548160ff02191690836004811115611c7957611c786120da565b5b02179055505f60045f8381526020019081526020015f20548360030154611ca09190612bac565b90505f811115611d1c57611d1b836001015f9054906101000a900473ffffffffffffffffffffffffffffffffffffffff1682856002015f9054906101000a900473ffffffffffffffffffffffffffffffffffffffff1673ffffffffffffffffffffffffffffffffffffffff16611b029092919063ffffffff16565b5b817f3bfce8de0db7450cc169b94323c210e69a36c6a4a58c9f5d96bec4973adce392846001015f9054906101000a900473ffffffffffffffffffffffffffffffffffffffff1683604051611d71929190612882565b60405180910390a2505050565b5f5f8573ffffffffffffffffffffffffffffffffffffffff166323b872dd60e01b868686604051602401611db4939291906132f6565b604051602081830303815290604052907bffffffffffffffffffffffffffffffffffffffffffffffffffffffff19166020820180517bffffffffffffffffffffffffffffffffffffffffffffffffffffffff8381831617835250505050604051611e1e9190613239565b5f604051808303815f865af19150503d805f8114611e57576040519150601f19603f3d011682016040523d82523d5f602084013e611e5c565b606091505b5091509150818015611e8957505f81511480611e88575080806020019051810190611e879190613263565b5b5b611ec8576040517f08c379a0000000000000000000000000000000000000000000000000000000008152600401611ebf90613375565b60405180910390fd5b505050505050565b6040518061010001604052805f73ffffffffffffffffffffffffffffffffffffffff1681526020015f73ffffffffffffffffffffffffffffffffffffffff1681526020015f73ffffffffffffffffffffffffffffffffffffffff1681526020015f81526020015f81526020015f81526020015f67ffffffffffffffff1681526020015f6004811115611f6557611f646120da565b5b81525090565b5f5ffd5b5f5ffd5b5f819050919050565b611f8581611f73565b8114611f8f575f5ffd5b50565b5f81359050611fa081611f7c565b92915050565b5f819050919050565b611fb881611fa6565b8114611fc2575f5ffd5b50565b5f81359050611fd381611faf565b92915050565b5f5f60408385031215611fef57611fee611f6b565b5b5f611ffc85828601611f92565b925050602061200d85828601611fc5565b9150509250929050565b5f6020828403121561202c5761202b611f6b565b5b5f61203984828501611f92565b91505092915050565b61204b81611f73565b82525050565b5f6020820190506120645f830184612042565b92915050565b5f73ffffffffffffffffffffffffffffffffffffffff82169050919050565b5f6120938261206a565b9050919050565b6120a381612089565b82525050565b6120b281611fa6565b82525050565b5f67ffffffffffffffff82169050919050565b6120d4816120b8565b82525050565b7f4e487b71000000000000000000000000000000000000000000000000000000005f52602160045260245ffd5b60058110612118576121176120da565b5b50565b5f81905061212882612107565b919050565b5f6121378261211b565b9050919050565b6121478161212d565b82525050565b5f610100820190506121615f83018b61209a565b61216e602083018a61209a565b61217b604083018961209a565b6121886060830188612042565b6121956080830187612042565b6121a260a08301866120a9565b6121af60c08301856120cb565b6121bc60e083018461213e565b9998505050505050505050565b5f5f604083850312156121df576121de611f6b565b5b5f6121ec85828601611f92565b92505060206121fd85828601611f92565b9150509250929050565b5f8115159050919050565b61221b81612207565b8114612225575f5ffd5b50565b5f8135905061223681612212565b92915050565b5f5f6040838503121561225257612251611f6b565b5b5f61225f85828601611f92565b925050602061227085828601612228565b9150509250929050565b5f81519050919050565b5f82825260208201905092915050565b5f819050602082019050919050565b6122ac81611f73565b82525050565b5f6122bd83836122a3565b60208301905092915050565b5f602082019050919050565b5f6122df8261227a565b6122e98185612284565b93506122f483612294565b805f5b8381101561232457815161230b88826122b2565b9750612316836122c9565b9250506001810190506122f7565b5085935050505092915050565b5f6020820190508181035f83015261234981846122d5565b905092915050565b61235a81612089565b8114612364575f5ffd5b50565b5f8135905061237581612351565b92915050565b5f5ffd5b5f5ffd5b5f5ffd5b5f5f83601f84011261239c5761239b61237b565b5b8235905067ffffffffffffffff8111156123b9576123b861237f565b5b6020830191508360208202830111156123d5576123d4612383565b5b9250929050565b5f5f5f5f5f5f60a087890312156123f6576123f5611f6b565b5b5f61240389828a01612367565b965050602061241489828a01612367565b955050604061242589828a01611f92565b945050606061243689828a01611f92565b935050608087013567ffffffffffffffff81111561245757612456611f6f565b5b61246389828a01612387565b92509250509295509295509295565b61247b81612089565b82525050565b61248a81611fa6565b82525050565b612499816120b8565b82525050565b6124a88161212d565b82525050565b61010082015f8201516124c35f850182612472565b5060208201516124d66020850182612472565b5060408201516124e96040850182612472565b5060608201516124fc60608501826122a3565b50608082015161250f60808501826122a3565b5060a082015161252260a0850182612481565b5060c082015161253560c0850182612490565b5060e082015161254860e085018261249f565b50505050565b5f610100820190506125625f8301846124ae565b92915050565b5f60208201905061257b5f83018461209a565b92915050565b5f82825260208201905092915050565b7f4e6f742073656c6c6572000000000000000000000000000000000000000000005f82015250565b5f6125c5600a83612581565b91506125d082612591565b602082019050919050565b5f6020820190508181035f8301526125f2816125b9565b9050919050565b7f416c7265616479207375626d69747465640000000000000000000000000000005f82015250565b5f61262d601183612581565b9150612638826125f9565b602082019050919050565b5f6020820190508181035f83015261265a81612621565b9050919050565b7f446561646c696e652070617373656400000000000000000000000000000000005f82015250565b5f612695600f83612581565b91506126a082612661565b602082019050919050565b5f6020820190508181035f8301526126c281612689565b9050919050565b7f456d7074792068617368000000000000000000000000000000000000000000005f82015250565b5f6126fd600a83612581565b9150612708826126c9565b602082019050919050565b5f6020820190508181035f83015261272a816126f1565b9050919050565b5f6020820190506127445f8301846120a9565b92915050565b7f4e6f7420627579657200000000000000000000000000000000000000000000005f82015250565b5f61277e600983612581565b91506127898261274a565b602082019050919050565b5f6020820190508181035f8301526127ab81612772565b9050919050565b7f576f726b20776173207375626d697474656400000000000000000000000000005f82015250565b5f6127e6601283612581565b91506127f1826127b2565b602082019050919050565b5f6020820190508181035f830152612813816127da565b9050919050565b7f446561646c696e65206e6f7420706173736564000000000000000000000000005f82015250565b5f61284e601383612581565b91506128598261281a565b602082019050919050565b5f6020820190508181035f83015261287b81612842565b9050919050565b5f6040820190506128955f83018561209a565b6128a26020830184612042565b9392505050565b7f4a6f6220636c6f736564000000000000000000000000000000000000000000005f82015250565b5f6128dd600a83612581565b91506128e8826128a9565b602082019050919050565b5f6020820190508181035f83015261290a816128d1565b9050919050565b7f4e6f206d696c6573746f6e6573000000000000000000000000000000000000005f82015250565b5f612945600d83612581565b915061295082612911565b602082019050919050565b5f6020820190508181035f83015261297281612939565b9050919050565b7f416c6c206d696c6573746f6e65732072656c65617365640000000000000000005f82015250565b5f6129ad601783612581565b91506129b882612979565b602082019050919050565b5f6020820190508181035f8301526129da816129a1565b9050919050565b7f4e487b71000000000000000000000000000000000000000000000000000000005f52601160045260245ffd5b5f612a1882611f73565b91507fffffffffffffffffffffffffffffffffffffffffffffffffffffffffffffffff8203612a4a57612a496129e1565b5b600182019050919050565b7f4e487b71000000000000000000000000000000000000000000000000000000005f52603260045260245ffd5b5f612a8c82611f73565b9150612a9783611f73565b9250828201905080821115612aaf57612aae6129e1565b5b92915050565b5f604082019050612ac85f830185612042565b612ad56020830184612042565b9392505050565b7f4e6f7420617262697465720000000000000000000000000000000000000000005f82015250565b5f612b10600b83612581565b9150612b1b82612adc565b602082019050919050565b5f6020820190508181035f830152612b3d81612b04565b9050919050565b7f4e6f7420646973707574656400000000000000000000000000000000000000005f82015250565b5f612b78600c83612581565b9150612b8382612b44565b602082019050919050565b5f6020820190508181035f830152612ba581612b6c565b9050919050565b5f612bb682611f73565b9150612bc183611f73565b9250828203905081811115612bd957612bd86129e1565b5b92915050565b7f576f726b206e6f74207375626d697474656400000000000000000000000000005f82015250565b5f612c13601283612581565b9150612c1e82612bdf565b602082019050919050565b5f6020820190508181035f830152612c4081612c07565b9050919050565b7f57696e646f77207374696c6c206f70656e0000000000000000000000000000005f82015250565b5f612c7b601183612581565b9150612c8682612c47565b602082019050919050565b5f6020820190508181035f830152612ca881612c6f565b9050919050565b7f57696e646f7720636c6f736564000000000000000000000000000000000000005f82015250565b5f612ce3600d83612581565b9150612cee82612caf565b602082019050919050565b5f6020820190508181035f830152612d1081612cd7565b9050919050565b7f446561646c696e6520696e2070617374000000000000000000000000000000005f82015250565b5f612d4b601083612581565b9150612d5682612d17565b602082019050919050565b5f6020820190508181035f830152612d7881612d3f565b9050919050565b7f416d6f756e74207a65726f0000000000000000000000000000000000000000005f82015250565b5f612db3600b83612581565b9150612dbe82612d7f565b602082019050919050565b5f6020820190508181035f830152612de081612da7565b9050919050565b7f496e76616c69642073656c6c65720000000000000000000000000000000000005f82015250565b5f612e1b600e83612581565b9150612e2682612de7565b602082019050919050565b5f6020820190508181035f830152612e4881612e0f565b9050919050565b7f42757965722063616e6e6f742062652073656c6c6572000000000000000000005f82015250565b5f612e83601683612581565b9150612e8e82612e4f565b602082019050919050565b5f6020820190508181035f830152612eb081612e77565b9050919050565b7f4d696c6573746f6e657320213d20616d6f756e740000000000000000000000005f82015250565b5f612eeb601483612581565b9150612ef682612eb7565b602082019050919050565b5f6020820190508181035f830152612f1881612edf565b9050919050565b7f4e487b71000000000000000000000000000000000000000000000000000000005f52604160045260245ffd5b5f81549050919050565b5f8190506001806001038301049050919050565b5f819050815f5260205f209050919050565b5f82821b905092915050565b5f60088302612fb77fffffffffffffffffffffffffffffffffffffffffffffffffffffffffffffffff82612f7c565b612fc18683612f7c565b95508019841693508086168417925050509392505050565b5f819050919050565b5f612ffc612ff7612ff284611f73565b612fd9565b611f73565b9050919050565b5f819050919050565b61301583612fe2565b61302961302182613003565b848454612f88565b825550505050565b5f5f905090565b613040613031565b61304b81848461300c565b505050565b5f5b82811015613071576130665f828401613038565b600181019050613052565b505050565b818310156130ad5761308782612f56565b61309084612f56565b61309983612f6a565b8181016130a883850382613050565b505050505b505050565b680100000000000000008211156130cc576130cb612f1f565b5b6130d581612f4c565b8282556130e3838284613076565b505050565b5f82905092915050565b5f81356130fe81611f7c565b80915050919050565b5f819050919050565b61311a83836130e8565b67ffffffffffffffff81111561313357613132612f1f565b5b61313d81836130b2565b61314683613107565b61314f83612f6a565b600183045f5b8181101561318c575f613167856130f2565b61317081613003565b8092506020870196505050808285015550600181019050613155565b5050505050505050565b5f60a0820190506131a95f83018861209a565b6131b6602083018761209a565b6131c3604083018661209a565b6131d06060830185612042565b6131dd6080830184612042565b9695505050505050565b5f81519050919050565b5f81905092915050565b8281835e5f83830152505050565b5f613213826131e7565b61321d81856131f1565b935061322d8185602086016131fb565b80840191505092915050565b5f6132448284613209565b915081905092915050565b5f8151905061325d81612212565b92915050565b5f6020828403121561327857613277611f6b565b5b5f6132858482850161324f565b91505092915050565b7f5472616e73666572206661696c656400000000000000000000000000000000005f82015250565b5f6132c2600f83612581565b91506132cd8261328e565b602082019050919050565b5f6020820190508181035f8301526132ef816132b6565b9050919050565b5f6060820190506133095f83018661209a565b613316602083018561209a565b6133236040830184612042565b949350505050565b7f5472616e7366657246726f6d206661696c6564000000000000000000000000005f82015250565b5f61335f601383612581565b915061336a8261332b565b602082019050919050565b5f6020820190508181035f83015261338c81613353565b905091905056fea2646970667358221220e7560362e69184aae99fa9464746e3080e2efe1fa946db33f7c10244ba28e9eb64736f6c63430008210033","linkReferences":{}},"methodIdentifiers":{"DISPUTE_WINDOW()":"f585dc57","arbiter()":"fe25e00a","autoRelease(uint256)":"459b860e","createJob(address,address,uint256,uint256,uint256[])":"95a018d9","dispute(uint256)":"86d6282c","getJob(uint256)":"bf22c457","getMilestones(uint256)":"42c549c0","jobCount()":"4c5d8a0f","jobs(uint256)":"180aedf3","milestones(uint256,uint256)":"1c376c63","nextMilestone(uint256)":"c04b45e9","refund(uint256)":"278ecde1","release(uint256)":"37bdc99b","releaseMilestone(uint256)":"317debf5","releasedAmount(uint256)":"111730d1","resolveDispute(uint256,bool)":"34b25ee2","submitWork(uint256,bytes32)":"0a9eeded"},"id":19}