{"abi":[{"type":"function","name":"DISPUTE_WINDOW","inputs":[],"outputs":[{"name":"","type":"uint256","internalType":"uint256"}],"stateMutability":"view"},{"type":"function","name":"autoRelease","inputs":[{"name":"jobId","type":"uint256","internalType":"uint256"}],"outputs":[],"stateMutability":"nonpayable"},{"type":"function","name":"createJob","inputs":[{"name":"seller","type":"address","internalType":"address"},{"name":"token","type":"address","internalType":"address"},{"name":"amount","type":"uint256","internalType":"uint256"},{"name":"deadline","type":"uint256","internalType":"uint256"},{"name":"milestoneAmounts","type":"uint256[]","internalType":"uint256[]"}],"outputs":[{"name":"jobId","type":"uint256","internalType":"uint256"}],"stateMutability":"nonpayable"},{"type":"function","name":"dispute","inputs":[{"name":"jobId","type":"uint256","internalType":"uint256"}],"outputs":[],"stateMutability":"nonpayable"},{"type":"function","name":"getJob","inputs":[{"name":"jobId","type":"uint256","internalType":"uint256"}],"outputs":[{"name":"","type":"tuple","internalType":"struct AgentEscrowV2.Job","components":[{"name":"buyer","type":"address","internalType":"address"},{"name":"seller","type":"address","internalType":"address"},{"name":"token","type":"address","internalType":"address"},{"name":"amount","type":"uint256","internalType":"uint256"},{"name":"deadline","type":"uint256","internalType":"uint256"},{"name":"workHash","type":"bytes32","internalType":"bytes32"},{"name":"submittedAt","type":"uint64","internalType":"uint64"},{"name":"status","type":"uint8","internalType":"enum AgentEscrowV2.Status"}]}],"stateMutability":"view"},{"type":"function","name":"getMilestones","inputs":[{"name":"jobId","type":"uint256","internalType":"uint256"}],"outputs":[{"name":"","type":"uint256[]","internalType":"uint256[]"}],"stateMutability":"view"},{"type":"function","name":"jobCount","inputs":[],"outputs":[{"name":"","type":"uint256","internalType":"uint256"}],"stateMutability":"view"},{"type":"function","name":"jobs","inputs":[{"name":"","type":"uint256","internalType":"uint256"}],"outputs":[{"name":"buyer","type":"address","internalType":"address"},{"name":"seller","type":"address","internalType":"address"},{"name":"token","type":"address","internalType":"address"},{"name":"amount","type":"uint256","internalType":"uint256"},{"name":"deadline","type":"uint256","internalType":"uint256"},{"name":"workHash","type":"bytes32","internalType":"bytes32"},{"name":"submittedAt","type":"uint64","internalType":"uint64"},{"name":"status","type":"uint8","internalType":"enum AgentEscrowV2.Status"}],"stateMutability":"view"},{"type":"function","name":"milestones","inputs":[{"name":"","type":"uint256","internalType":"uint256"},{"name":"","type":"uint256","internalType":"uint256"}],"outputs":[{"name":"","type":"uint256","internalType":"uint256"}],"stateMutability":"view"},{"type":"function","name":"nextMilestone","inputs":[{"name":"","type":"uint256","internalType":"uint256"}],"outputs":[{"name":"","type":"uint256","internalType":"uint256"}],"stateMutability":"view"},{"type":"function","name":"refund","inputs":[{"name":"jobId","type":"uint256","internalType":"uint256"}],"outputs":[],"stateMutability":"nonpayable"},{"type":"function","name":"release","inputs":[{"name":"jobId","type":"uint256","internalType":"uint256"}],"outputs":[],"stateMutability":"nonpayable"},{"type":"function","name":"releaseMilestone","inputs":[{"name":"jobId","type":"uint256","internalType":"uint256"}],"outputs":[],"stateMutability":"nonpayable"},{"type":"function","name":"submitWork","inputs":[{"name":"jobId","type":"uint256","internalType":"uint256"},{"name":"workHash","type":"bytes32","internalType":"bytes32"}],"outputs":[],"stateMutability":"nonpayable"},{"type":"event","name":"AutoReleased","inputs":[{"name":"jobId","type":"uint256","indexed":true,"internalType":"uint256"}],"anonymous":false},{"type":"event","name":"Disputed","inputs":[{"name":"jobId","type":"uint256","indexed":true,"internalType":"uint256"}],"anonymous":false},{"type":"event","name":"JobCreated","inputs":[{"name":"jobId","type":"uint256","indexed":true,"internalType":"uint256"},{"name":"buyer","type":"address","indexed":false,"internalType":"address"},{"name":"seller","type":"address","indexed":false,"internalType":"address"},{"name":"token","type":"address","indexed":false,"internalType":"address"},{"name":"amount","type":"uint256","indexed":false,"internalType":"uint256"},{"name":"deadline","type":"uint256","indexed":false,"internalType":"uint256"}],"anonymous":false},{"type":"event","name":"MilestoneReleased","inputs":[{"name":"jobId","type":"uint256","indexed":true,"internalType":"uint256"},{"name":"milestoneIdx","type":"uint256","indexed":false,"internalType":"uint256"},{"name":"amount","type":"uint256","indexed":false,"internalType":"uint256"}],"anonymous":false},{"type":"event","name":"Refunded","inputs":[{"name":"jobId","type":"uint256","indexed":true,"internalType":"uint256"},{"name":"buyer","type":"address","indexed":false,"internalType":"address"},{"name":"amount","type":"uint256","indexed":false,"internalType":"uint256"}],"anonymous":false},{"type":"event","name":"Released","inputs":[{"name":"jobId","type":"uint256","indexed":true,"internalType":"uint256"},{"name":"seller","type":"address","indexed":false,"internalType":"address"},{"name":"amount","type":"uint256","indexed":false,"internalType":"uint256"}],"anonymous":false},{"type":"event","name":"WorkSubmitted","inputs":[{"name":"jobId","type":"uint256","indexed":true,"internalType":"uint256"},{"name":"workHash","type":"bytes32","indexed":false,"internalType":"bytes32"}],"anonymous":false}],"bytecode":{"object":"0x6080604052348015600e575f5ffd5b50612b188061001c5f395ff3fe608060405234801561000f575f5ffd5b50600436106100e8575f3560e01c8063459b860e1161008a57806395a018d91161006457806395a018d914610249578063bf22c45714610279578063c04b45e9146102a9578063f585dc57146102d9576100e8565b8063459b860e146101f35780634c5d8a0f1461020f57806386d6282c1461022d576100e8565b8063278ecde1116100c6578063278ecde11461016f578063317debf51461018b57806337bdc99b146101a757806342c549c0146101c3576100e8565b80630a9eeded146100ec578063180aedf3146101085780631c376c631461013f575b5f5ffd5b61010660048036038101906101019190611a36565b6102f7565b005b610122600480360381019061011d9190611a74565b61053b565b604051610136989796959493929190611b91565b60405180910390f35b61015960048036038101906101549190611c0d565b6105fc565b6040516101669190611c4b565b60405180910390f35b61018960048036038101906101849190611a74565b610627565b005b6101a560048036038101906101a09190611a74565b61091c565b005b6101c160048036038101906101bc9190611a74565b610cb2565b005b6101dd60048036038101906101d89190611a74565b610ddc565b6040516101ea9190611d1b565b60405180910390f35b61020d60048036038101906102089190611a74565b610e43565b005b610217610f7b565b6040516102249190611c4b565b60405180910390f35b61024760048036038101906102429190611a74565b610f80565b005b610263600480360381019061025e9190611dc6565b61116c565b6040516102709190611c4b565b60405180910390f35b610293600480360381019061028e9190611a74565b6115c7565b6040516102a09190611f38565b60405180910390f35b6102c360048036038101906102be9190611a74565b61177b565b6040516102d09190611c4b565b60405180910390f35b6102e1611790565b6040516102ee9190611c4b565b60405180910390f35b5f60015f8481526020019081526020015f209050806001015f9054906101000a900473ffffffffffffffffffffffffffffffffffffffff1673ffffffffffffffffffffffffffffffffffffffff163373ffffffffffffffffffffffffffffffffffffffff161461039c576040517f08c379a000000000000000000000000000000000000000000000000000000000815260040161039390611fac565b60405180910390fd5b5f60048111156103af576103ae611b1e565b5b8160060160089054906101000a900460ff1660048111156103d3576103d2611b1e565b5b14610413576040517f08c379a000000000000000000000000000000000000000000000000000000000815260040161040a90612014565b60405180910390fd5b806004015442111561045a576040517f08c379a00000000000000000000000000000000000000000000000000000000081526004016104519061207c565b60405180910390fd5b5f5f1b820361049e576040517f08c379a0000000000000000000000000000000000000000000000000000000008152600401610495906120e4565b60405180910390fd5b81816005018190555042816006015f6101000a81548167ffffffffffffffff021916908367ffffffffffffffff16021790555060018160060160086101000a81548160ff021916908360048111156104f9576104f8611b1e565b5b0217905550827f8b518f883474495e3b14f695aed6ef569f74b362c5faa3c4a64f1e0f1a3b9eae8360405161052e9190612102565b60405180910390a2505050565b6001602052805f5260405f205f91509050805f015f9054906101000a900473ffffffffffffffffffffffffffffffffffffffff1690806001015f9054906101000a900473ffffffffffffffffffffffffffffffffffffffff1690806002015f9054906101000a900473ffffffffffffffffffffffffffffffffffffffff1690806003015490806004015490806005015490806006015f9054906101000a900467ffffffffffffffff16908060060160089054906101000a900460ff16905088565b6002602052815f5260405f208181548110610615575f80fd5b905f5260205f20015f91509150505481565b5f60015f8381526020019081526020015f209050805f015f9054906101000a900473ffffffffffffffffffffffffffffffffffffffff1673ffffffffffffffffffffffffffffffffffffffff163373ffffffffffffffffffffffffffffffffffffffff16146106cb576040517f08c379a00000000000000000000000000000000000000000000000000000000081526004016106c290612165565b60405180910390fd5b5f60048111156106de576106dd611b1e565b5b8160060160089054906101000a900460ff16600481111561070257610701611b1e565b5b14610742576040517f08c379a0000000000000000000000000000000000000000000000000000000008152600401610739906121cd565b60405180910390fd5b80600401544211610788576040517f08c379a000000000000000000000000000000000000000000000000000000000815260040161077f90612235565b60405180910390fd5b60038160060160086101000a81548160ff021916908360048111156107b0576107af611b1e565b5b0217905550806002015f9054906101000a900473ffffffffffffffffffffffffffffffffffffffff1673ffffffffffffffffffffffffffffffffffffffff1663a9059cbb825f015f9054906101000a900473ffffffffffffffffffffffffffffffffffffffff1683600301546040518363ffffffff1660e01b8152600401610839929190612253565b6020604051808303815f875af1158015610855573d5f5f3e3d5ffd5b505050506040513d601f19601f8201168201806040525081019061087991906122af565b6108b8576040517f08c379a00000000000000000000000000000000000000000000000000000000081526004016108af90612324565b60405180910390fd5b817f7ca5472b7ea78c2c0141c5a12ee6d170cf4ce8ed06be3d22c8252ddfc7a6a2c4825f015f9054906101000a900473ffffffffffffffffffffffffffffffffffffffff168360030154604051610910929190612253565b60405180910390a25050565b5f60015f8381526020019081526020015f209050805f015f9054906101000a900473ffffffffffffffffffffffffffffffffffffffff1673ffffffffffffffffffffffffffffffffffffffff163373ffffffffffffffffffffffffffffffffffffffff16146109c0576040517f08c379a00000000000000000000000000000000000000000000000000000000081526004016109b790612165565b60405180910390fd5b5f60048111156109d3576109d2611b1e565b5b8160060160089054906101000a900460ff1660048111156109f7576109f6611b1e565b5b1480610a38575060016004811115610a1257610a11611b1e565b5b8160060160089054906101000a900460ff166004811115610a3657610a35611b1e565b5b145b610a77576040517f08c379a0000000000000000000000000000000000000000000000000000000008152600401610a6e9061238c565b60405180910390fd5b5f60025f8481526020019081526020015f2090505f818054905011610ad1576040517f08c379a0000000000000000000000000000000000000000000000000000000008152600401610ac8906123f4565b60405180910390fd5b5f60035f8581526020019081526020015f2054905081805490508110610b2c576040517f08c379a0000000000000000000000000000000000000000000000000000000008152600401610b239061245c565b60405180910390fd5b60035f8581526020019081526020015f205f815480929190610b4d906124a7565b91905055505f828281548110610b6657610b656124ee565b5b905f5260205f2001549050836002015f9054906101000a900473ffffffffffffffffffffffffffffffffffffffff1673ffffffffffffffffffffffffffffffffffffffff1663a9059cbb856001015f9054906101000a900473ffffffffffffffffffffffffffffffffffffffff16836040518363ffffffff1660e01b8152600401610bf2929190612253565b6020604051808303815f875af1158015610c0e573d5f5f3e3d5ffd5b505050506040513d601f19601f82011682018060405250810190610c3291906122af565b610c71576040517f08c379a0000000000000000000000000000000000000000000000000000000008152600401610c6890612324565b60405180910390fd5b847fd33fcd27cbfb73a2d9058c968b560ccb306500bf536133802048489ecc7355e98383604051610ca392919061251b565b60405180910390a25050505050565b5f60015f8381526020019081526020015f209050805f015f9054906101000a900473ffffffffffffffffffffffffffffffffffffffff1673ffffffffffffffffffffffffffffffffffffffff163373ffffffffffffffffffffffffffffffffffffffff1614610d56576040517f08c379a0000000000000000000000000000000000000000000000000000000008152600401610d4d90612165565b60405180910390fd5b60016004811115610d6a57610d69611b1e565b5b8160060160089054906101000a900460ff166004811115610d8e57610d8d611b1e565b5b14610dce576040517f08c379a0000000000000000000000000000000000000000000000000000000008152600401610dc59061258c565b60405180910390fd5b610dd88183611797565b5050565b606060025f8381526020019081526020015f20805480602002602001604051908101604052809291908181526020018280548015610e3757602002820191905f5260205f20905b815481526020019060010190808311610e23575b50505050509050919050565b5f60015f8381526020019081526020015f20905060016004811115610e6b57610e6a611b1e565b5b8160060160089054906101000a900460ff166004811115610e8f57610e8e611b1e565b5b14610ecf576040517f08c379a0000000000000000000000000000000000000000000000000000000008152600401610ec69061258c565b60405180910390fd5b6202a300816006015f9054906101000a900467ffffffffffffffff1667ffffffffffffffff16610eff91906125aa565b4211610f40576040517f08c379a0000000000000000000000000000000000000000000000000000000008152600401610f3790612627565b60405180910390fd5b610f4a8183611797565b817f93fb721c2c02adcc629c450452332bd9fa1dfbc41825cf28709bf21e8d19363f60405160405180910390a25050565b5f5481565b5f60015f8381526020019081526020015f209050805f015f9054906101000a900473ffffffffffffffffffffffffffffffffffffffff1673ffffffffffffffffffffffffffffffffffffffff163373ffffffffffffffffffffffffffffffffffffffff1614611024576040517f08c379a000000000000000000000000000000000000000000000000000000000815260040161101b90612165565b60405180910390fd5b6001600481111561103857611037611b1e565b5b8160060160089054906101000a900460ff16600481111561105c5761105b611b1e565b5b1461109c576040517f08c379a00000000000000000000000000000000000000000000000000000000081526004016110939061258c565b60405180910390fd5b6202a300816006015f9054906101000a900467ffffffffffffffff1667ffffffffffffffff166110cc91906125aa565b42111561110e576040517f08c379a00000000000000000000000000000000000000000000000000000000081526004016111059061268f565b60405180910390fd5b60048160060160086101000a81548160ff0219169083600481111561113657611135611b1e565b5b0217905550817f7e3d476b0ad3176eefadbd6672356ef3884fad75f1344623a88d4a808784233660405160405180910390a25050565b5f4284116111af576040517f08c379a00000000000000000000000000000000000000000000000000000000081526004016111a6906126f7565b60405180910390fd5b5f85116111f1576040517f08c379a00000000000000000000000000000000000000000000000000000000081526004016111e89061275f565b60405180910390fd5b5f838390501115611283575f5f5b8484905081101561123e5784848281811061121d5761121c6124ee565b5b905060200201358261122f91906125aa565b915080806001019150506111ff565b50858114611281576040517f08c379a0000000000000000000000000000000000000000000000000000000008152600401611278906127c7565b60405180910390fd5b505b8573ffffffffffffffffffffffffffffffffffffffff166323b872dd3330886040518463ffffffff1660e01b81526004016112c0939291906127e5565b6020604051808303815f875af11580156112dc573d5f5f3e3d5ffd5b505050506040513d601f19601f8201168201806040525081019061130091906122af565b61133f576040517f08c379a000000000000000000000000000000000000000000000000000000000815260040161133690612324565b60405180910390fd5b5f5f815480929190611350906124a7565b9190505590506040518061010001604052803373ffffffffffffffffffffffffffffffffffffffff1681526020018873ffffffffffffffffffffffffffffffffffffffff1681526020018773ffffffffffffffffffffffffffffffffffffffff1681526020018681526020018581526020015f5f1b81526020015f67ffffffffffffffff1681526020015f60048111156113ed576113ec611b1e565b5b81525060015f8381526020019081526020015f205f820151815f015f6101000a81548173ffffffffffffffffffffffffffffffffffffffff021916908373ffffffffffffffffffffffffffffffffffffffff1602179055506020820151816001015f6101000a81548173ffffffffffffffffffffffffffffffffffffffff021916908373ffffffffffffffffffffffffffffffffffffffff1602179055506040820151816002015f6101000a81548173ffffffffffffffffffffffffffffffffffffffff021916908373ffffffffffffffffffffffffffffffffffffffff160217905550606082015181600301556080820151816004015560a0820151816005015560c0820151816006015f6101000a81548167ffffffffffffffff021916908367ffffffffffffffff16021790555060e08201518160060160086101000a81548160ff0219169083600481111561154857611547611b1e565b5b02179055509050505f83839050111561157d57828260025f8481526020019081526020015f20918261157b929190612a0b565b505b807fe630f8de1b7900c0a784c0dc1626fc527740c4d1a1c7ba6827642272f4b5a22833898989896040516115b5959493929190612a91565b60405180910390a29695505050505050565b6115cf61192d565b60015f8381526020019081526020015f20604051806101000160405290815f82015f9054906101000a900473ffffffffffffffffffffffffffffffffffffffff1673ffffffffffffffffffffffffffffffffffffffff1673ffffffffffffffffffffffffffffffffffffffff168152602001600182015f9054906101000a900473ffffffffffffffffffffffffffffffffffffffff1673ffffffffffffffffffffffffffffffffffffffff1673ffffffffffffffffffffffffffffffffffffffff168152602001600282015f9054906101000a900473ffffffffffffffffffffffffffffffffffffffff1673ffffffffffffffffffffffffffffffffffffffff1673ffffffffffffffffffffffffffffffffffffffff168152602001600382015481526020016004820154815260200160058201548152602001600682015f9054906101000a900467ffffffffffffffff1667ffffffffffffffff1667ffffffffffffffff1681526020016006820160089054906101000a900460ff16600481111561175e5761175d611b1e565b5b60048111156117705761176f611b1e565b5b815250509050919050565b6003602052805f5260405f205f915090505481565b6202a30081565b60028260060160086101000a81548160ff021916908360048111156117bf576117be611b1e565b5b0217905550816002015f9054906101000a900473ffffffffffffffffffffffffffffffffffffffff1673ffffffffffffffffffffffffffffffffffffffff1663a9059cbb836001015f9054906101000a900473ffffffffffffffffffffffffffffffffffffffff1684600301546040518363ffffffff1660e01b8152600401611849929190612253565b6020604051808303815f875af1158015611865573d5f5f3e3d5ffd5b505050506040513d601f19601f8201168201806040525081019061188991906122af565b6118c8576040517f08c379a00000000000000000000000000000000000000000000000000000000081526004016118bf90612324565b60405180910390fd5b807f3bfce8de0db7450cc169b94323c210e69a36c6a4a58c9f5d96bec4973adce392836001015f9054906101000a900473ffffffffffffffffffffffffffffffffffffffff168460030154604051611921929190612253565b60405180910390a25050565b6040518061010001604052805f73ffffffffffffffffffffffffffffffffffffffff1681526020015f73ffffffffffffffffffffffffffffffffffffffff1681526020015f73ffffffffffffffffffffffffffffffffffffffff1681526020015f81526020015f81526020015f81526020015f67ffffffffffffffff1681526020015f60048111156119c2576119c1611b1e565b5b81525090565b5f5ffd5b5f5ffd5b5f819050919050565b6119e2816119d0565b81146119ec575f5ffd5b50565b5f813590506119fd816119d9565b92915050565b5f819050919050565b611a1581611a03565b8114611a1f575f5ffd5b50565b5f81359050611a3081611a0c565b92915050565b5f5f60408385031215611a4c57611a4b6119c8565b5b5f611a59858286016119ef565b9250506020611a6a85828601611a22565b9150509250929050565b5f60208284031215611a8957611a886119c8565b5b5f611a96848285016119ef565b91505092915050565b5f73ffffffffffffffffffffffffffffffffffffffff82169050919050565b5f611ac882611a9f565b9050919050565b611ad881611abe565b82525050565b611ae7816119d0565b82525050565b611af681611a03565b82525050565b5f67ffffffffffffffff82169050919050565b611b1881611afc565b82525050565b7f4e487b71000000000000000000000000000000000000000000000000000000005f52602160045260245ffd5b60058110611b5c57611b5b611b1e565b5b50565b5f819050611b6c82611b4b565b919050565b5f611b7b82611b5f565b9050919050565b611b8b81611b71565b82525050565b5f61010082019050611ba55f83018b611acf565b611bb2602083018a611acf565b611bbf6040830189611acf565b611bcc6060830188611ade565b611bd96080830187611ade565b611be660a0830186611aed565b611bf360c0830185611b0f565b611c0060e0830184611b82565b9998505050505050505050565b5f5f60408385031215611c2357611c226119c8565b5b5f611c30858286016119ef565b9250506020611c41858286016119ef565b9150509250929050565b5f602082019050611c5e5f830184611ade565b92915050565b5f81519050919050565b5f82825260208201905092915050565b5f819050602082019050919050565b611c96816119d0565b82525050565b5f611ca78383611c8d565b60208301905092915050565b5f602082019050919050565b5f611cc982611c64565b611cd38185611c6e565b9350611cde83611c7e565b805f5b83811015611d0e578151611cf58882611c9c565b9750611d0083611cb3565b925050600181019050611ce1565b5085935050505092915050565b5f6020820190508181035f830152611d338184611cbf565b905092915050565b611d4481611abe565b8114611d4e575f5ffd5b50565b5f81359050611d5f81611d3b565b92915050565b5f5ffd5b5f5ffd5b5f5ffd5b5f5f83601f840112611d8657611d85611d65565b5b8235905067ffffffffffffffff811115611da357611da2611d69565b5b602083019150836020820283011115611dbf57611dbe611d6d565b5b9250929050565b5f5f5f5f5f5f60a08789031215611de057611ddf6119c8565b5b5f611ded89828a01611d51565b9650506020611dfe89828a01611d51565b9550506040611e0f89828a016119ef565b9450506060611e2089828a016119ef565b935050608087013567ffffffffffffffff811115611e4157611e406119cc565b5b611e4d89828a01611d71565b92509250509295509295509295565b611e6581611abe565b82525050565b611e7481611a03565b82525050565b611e8381611afc565b82525050565b611e9281611b71565b82525050565b61010082015f820151611ead5f850182611e5c565b506020820151611ec06020850182611e5c565b506040820151611ed36040850182611e5c565b506060820151611ee66060850182611c8d565b506080820151611ef96080850182611c8d565b5060a0820151611f0c60a0850182611e6b565b5060c0820151611f1f60c0850182611e7a565b5060e0820151611f3260e0850182611e89565b50505050565b5f61010082019050611f4c5f830184611e98565b92915050565b5f82825260208201905092915050565b7f4e6f742073656c6c6572000000000000000000000000000000000000000000005f82015250565b5f611f96600a83611f52565b9150611fa182611f62565b602082019050919050565b5f6020820190508181035f830152611fc381611f8a565b9050919050565b7f416c7265616479207375626d69747465640000000000000000000000000000005f82015250565b5f611ffe601183611f52565b915061200982611fca565b602082019050919050565b5f6020820190508181035f83015261202b81611ff2565b9050919050565b7f446561646c696e652070617373656400000000000000000000000000000000005f82015250565b5f612066600f83611f52565b915061207182612032565b602082019050919050565b5f6020820190508181035f8301526120938161205a565b9050919050565b7f456d7074792068617368000000000000000000000000000000000000000000005f82015250565b5f6120ce600a83611f52565b91506120d98261209a565b602082019050919050565b5f6020820190508181035f8301526120fb816120c2565b9050919050565b5f6020820190506121155f830184611aed565b92915050565b7f4e6f7420627579657200000000000000000000000000000000000000000000005f82015250565b5f61214f600983611f52565b915061215a8261211b565b602082019050919050565b5f6020820190508181035f83015261217c81612143565b9050919050565b7f576f726b20776173207375626d697474656400000000000000000000000000005f82015250565b5f6121b7601283611f52565b91506121c282612183565b602082019050919050565b5f6020820190508181035f8301526121e4816121ab565b9050919050565b7f446561646c696e65206e6f7420706173736564000000000000000000000000005f82015250565b5f61221f601383611f52565b915061222a826121eb565b602082019050919050565b5f6020820190508181035f83015261224c81612213565b9050919050565b5f6040820190506122665f830185611acf565b6122736020830184611ade565b9392505050565b5f8115159050919050565b61228e8161227a565b8114612298575f5ffd5b50565b5f815190506122a981612285565b92915050565b5f602082840312156122c4576122c36119c8565b5b5f6122d18482850161229b565b91505092915050565b7f5472616e73666572206661696c656400000000000000000000000000000000005f82015250565b5f61230e600f83611f52565b9150612319826122da565b602082019050919050565b5f6020820190508181035f83015261233b81612302565b9050919050565b7f4a6f6220636c6f736564000000000000000000000000000000000000000000005f82015250565b5f612376600a83611f52565b915061238182612342565b602082019050919050565b5f6020820190508181035f8301526123a38161236a565b9050919050565b7f4e6f206d696c6573746f6e6573000000000000000000000000000000000000005f82015250565b5f6123de600d83611f52565b91506123e9826123aa565b602082019050919050565b5f6020820190508181035f83015261240b816123d2565b9050919050565b7f416c6c206d696c6573746f6e65732072656c65617365640000000000000000005f82015250565b5f612446601783611f52565b915061245182612412565b602082019050919050565b5f6020820190508181035f8301526124738161243a565b9050919050565b7f4e487b71000000000000000000000000000000000000000000000000000000005f52601160045260245ffd5b5f6124b1826119d0565b91507fffffffffffffffffffffffffffffffffffffffffffffffffffffffffffffffff82036124e3576124e261247a565b5b600182019050919050565b7f4e487b71000000000000000000000000000000000000000000000000000000005f52603260045260245ffd5b5f60408201905061252e5f830185611ade565b61253b6020830184611ade565b9392505050565b7f576f726b206e6f74207375626d697474656400000000000000000000000000005f82015250565b5f612576601283611f52565b915061258182612542565b602082019050919050565b5f6020820190508181035f8301526125a38161256a565b9050919050565b5f6125b4826119d0565b91506125bf836119d0565b92508282019050808211156125d7576125d661247a565b5b92915050565b7f57696e646f77207374696c6c206f70656e0000000000000000000000000000005f82015250565b5f612611601183611f52565b915061261c826125dd565b602082019050919050565b5f6020820190508181035f83015261263e81612605565b9050919050565b7f57696e646f7720636c6f736564000000000000000000000000000000000000005f82015250565b5f612679600d83611f52565b915061268482612645565b602082019050919050565b5f6020820190508181035f8301526126a68161266d565b9050919050565b7f446561646c696e6520696e2070617374000000000000000000000000000000005f82015250565b5f6126e1601083611f52565b91506126ec826126ad565b602082019050919050565b5f6020820190508181035f83015261270e816126d5565b9050919050565b7f416d6f756e74207a65726f0000000000000000000000000000000000000000005f82015250565b5f612749600b83611f52565b915061275482612715565b602082019050919050565b5f6020820190508181035f8301526127768161273d565b9050919050565b7f4d696c6573746f6e657320213d20616d6f756e740000000000000000000000005f82015250565b5f6127b1601483611f52565b91506127bc8261277d565b602082019050919050565b5f6020820190508181035f8301526127de816127a5565b9050919050565b5f6060820190506127f85f830186611acf565b6128056020830185611acf565b6128126040830184611ade565b949350505050565b7f4e487b71000000000000000000000000000000000000000000000000000000005f52604160045260245ffd5b5f81549050919050565b5f8190506001806001038301049050919050565b5f819050815f5260205f209050919050565b5f82821b905092915050565b5f600883026128b27fffffffffffffffffffffffffffffffffffffffffffffffffffffffffffffffff82612877565b6128bc8683612877565b95508019841693508086168417925050509392505050565b5f819050919050565b5f6128f76128f26128ed846119d0565b6128d4565b6119d0565b9050919050565b5f819050919050565b612910836128dd565b61292461291c826128fe565b848454612883565b825550505050565b5f5f905090565b61293b61292c565b612946818484612907565b505050565b5f5b8281101561296c576129615f828401612933565b60018101905061294d565b505050565b818310156129a85761298282612851565b61298b84612851565b61299483612865565b8181016129a38385038261294b565b505050505b505050565b680100000000000000008211156129c7576129c661281a565b5b6129d081612847565b8282556129de838284612971565b505050565b5f82905092915050565b5f81356129f9816119d9565b80915050919050565b5f819050919050565b612a1583836129e3565b67ffffffffffffffff811115612a2e57612a2d61281a565b5b612a3881836129ad565b612a4183612a02565b612a4a83612865565b600183045f5b81811015612a87575f612a62856129ed565b612a6b816128fe565b8092506020870196505050808285015550600181019050612a50565b5050505050505050565b5f60a082019050612aa45f830188611acf565b612ab16020830187611acf565b612abe6040830186611acf565b612acb6060830185611ade565b612ad86080830184611ade565b969550505050505056fea26469706673582212202c0f10cffff4253f4522713e08116484208b7ff1f3b02af0c13fd2ec8502264a64736f6c63430008210033","linkReferences":{}},"methodIdentifiers":{"DISPUTE_WINDOW()":"f585dc57","autoRelease(uint256)":"459b860e","createJob(address,address,uint256,uint256,uint256[])":"95a018d9","dispute(uint256)":"86d6282c","getJob(uint256)":"bf22c457","getMilestones(uint256)":"42c549c0","jobCount()":"4c5d8a0f","jobs(uint256)":"180aedf3","milestones(uint256,uint256)":"1c376c63","nextMilestone(uint256)":"c04b45e9","refund(uint256)":"278ecde1","release(uint256)":"37bdc99b","releaseMilestone(uint256)":"317debf5","submitWork(uint256,bytes32)":"0a9eeded"},"id":19}