{"abi":[{"type":"constructor","inputs":[{"name":"_arbiter","type":"address","internalType":"address"}],"stateMutability":"nonpayable"},{"type":"function","name":"DEFAULT_DISPUTE_WINDOW","inputs":[],"outputs":[{"name":"","type":"uint256","internalType":"uint256"}],"stateMutability":"view"},{"type":"function","name":"MAX_DISPUTE_WINDOW","inputs":[],"outputs":[{"name":"","type":"uint256","internalType":"uint256"}],"stateMutability":"view"},{"type":"function","name":"MIN_DISPUTE_WINDOW","inputs":[],"outputs":[{"name":"","type":"uint256","internalType":"uint256"}],"stateMutability":"view"},{"type":"function","name":"arbiter","inputs":[],"outputs":[{"name":"","type":"address","internalType":"address"}],"stateMutability":"view"},{"type":"function","name":"autoRelease","inputs":[{"name":"jobId","type":"uint256","internalType":"uint256"}],"outputs":[],"stateMutability":"nonpayable"},{"type":"function","name":"createJob","inputs":[{"name":"seller","type":"address","internalType":"address"},{"name":"token","type":"address","internalType":"address"},{"name":"amount","type":"uint256","internalType":"uint256"},{"name":"deadline","type":"uint256","internalType":"uint256"},{"name":"milestoneAmounts","type":"uint256[]","internalType":"uint256[]"},{"name":"disputeWindowSeconds","type":"uint256","internalType":"uint256"}],"outputs":[{"name":"jobId","type":"uint256","internalType":"uint256"}],"stateMutability":"nonpayable"},{"type":"function","name":"dispute","inputs":[{"name":"jobId","type":"uint256","internalType":"uint256"}],"outputs":[],"stateMutability":"nonpayable"},{"type":"function","name":"getJob","inputs":[{"name":"jobId","type":"uint256","internalType":"uint256"}],"outputs":[{"name":"","type":"tuple","internalType":"struct AgentEscrowV3.Job","components":[{"name":"buyer","type":"address","internalType":"address"},{"name":"seller","type":"address","internalType":"address"},{"name":"token","type":"address","internalType":"address"},{"name":"amount","type":"uint256","internalType":"uint256"},{"name":"deadline","type":"uint256","internalType":"uint256"},{"name":"disputeWindow","type":"uint256","internalType":"uint256"},{"name":"workHash","type":"bytes32","internalType":"bytes32"},{"name":"submittedAt","type":"uint64","internalType":"uint64"},{"name":"status","type":"uint8","internalType":"enum AgentEscrowV3.Status"}]}],"stateMutability":"view"},{"type":"function","name":"getMilestones","inputs":[{"name":"jobId","type":"uint256","internalType":"uint256"}],"outputs":[{"name":"","type":"uint256[]","internalType":"uint256[]"}],"stateMutability":"view"},{"type":"function","name":"jobCount","inputs":[],"outputs":[{"name":"","type":"uint256","internalType":"uint256"}],"stateMutability":"view"},{"type":"function","name":"jobs","inputs":[{"name":"","type":"uint256","internalType":"uint256"}],"outputs":[{"name":"buyer","type":"address","internalType":"address"},{"name":"seller","type":"address","internalType":"address"},{"name":"token","type":"address","internalType":"address"},{"name":"amount","type":"uint256","internalType":"uint256"},{"name":"deadline","type":"uint256","internalType":"uint256"},{"name":"disputeWindow","type":"uint256","internalType":"uint256"},{"name":"workHash","type":"bytes32","internalType":"bytes32"},{"name":"submittedAt","type":"uint64","internalType":"uint64"},{"name":"status","type":"uint8","internalType":"enum AgentEscrowV3.Status"}],"stateMutability":"view"},{"type":"function","name":"milestones","inputs":[{"name":"","type":"uint256","internalType":"uint256"},{"name":"","type":"uint256","internalType":"uint256"}],"outputs":[{"name":"","type":"uint256","internalType":"uint256"}],"stateMutability":"view"},{"type":"function","name":"nextMilestone","inputs":[{"name":"","type":"uint256","internalType":"uint256"}],"outputs":[{"name":"","type":"uint256","internalType":"uint256"}],"stateMutability":"view"},{"type":"function","name":"refund","inputs":[{"name":"jobId","type":"uint256","internalType":"uint256"}],"outputs":[],"stateMutability":"nonpayable"},{"type":"function","name":"release","inputs":[{"name":"jobId","type":"uint256","internalType":"uint256"}],"outputs":[],"stateMutability":"nonpayable"},{"type":"function","name":"releaseMilestone","inputs":[{"name":"jobId","type":"uint256","internalType":"uint256"}],"outputs":[],"stateMutability":"nonpayable"},{"type":"function","name":"releasedAmount","inputs":[{"name":"","type":"uint256","internalType":"uint256"}],"outputs":[{"name":"","type":"uint256","internalType":"uint256"}],"stateMutability":"view"},{"type":"function","name":"remainingAmount","inputs":[{"name":"jobId","type":"uint256","internalType":"uint256"}],"outputs":[{"name":"","type":"uint256","internalType":"uint256"}],"stateMutability":"view"},{"type":"function","name":"resolveDispute","inputs":[{"name":"jobId","type":"uint256","internalType":"uint256"},{"name":"sellerBps","type":"uint256","internalType":"uint256"}],"outputs":[],"stateMutability":"nonpayable"},{"type":"function","name":"submitWork","inputs":[{"name":"jobId","type":"uint256","internalType":"uint256"},{"name":"workHash","type":"bytes32","internalType":"bytes32"}],"outputs":[],"stateMutability":"nonpayable"},{"type":"event","name":"AutoReleased","inputs":[{"name":"jobId","type":"uint256","indexed":true,"internalType":"uint256"}],"anonymous":false},{"type":"event","name":"DisputeResolved","inputs":[{"name":"jobId","type":"uint256","indexed":true,"internalType":"uint256"},{"name":"seller","type":"address","indexed":false,"internalType":"address"},{"name":"sellerAmount","type":"uint256","indexed":false,"internalType":"uint256"},{"name":"buyer","type":"address","indexed":false,"internalType":"address"},{"name":"buyerAmount","type":"uint256","indexed":false,"internalType":"uint256"}],"anonymous":false},{"type":"event","name":"Disputed","inputs":[{"name":"jobId","type":"uint256","indexed":true,"internalType":"uint256"}],"anonymous":false},{"type":"event","name":"JobCreated","inputs":[{"name":"jobId","type":"uint256","indexed":true,"internalType":"uint256"},{"name":"buyer","type":"address","indexed":false,"internalType":"address"},{"name":"seller","type":"address","indexed":false,"internalType":"address"},{"name":"token","type":"address","indexed":false,"internalType":"address"},{"name":"amount","type":"uint256","indexed":false,"internalType":"uint256"},{"name":"deadline","type":"uint256","indexed":false,"internalType":"uint256"},{"name":"disputeWindow","type":"uint256","indexed":false,"internalType":"uint256"}],"anonymous":false},{"type":"event","name":"MilestoneReleased","inputs":[{"name":"jobId","type":"uint256","indexed":true,"internalType":"uint256"},{"name":"milestoneIdx","type":"uint256","indexed":false,"internalType":"uint256"},{"name":"amount","type":"uint256","indexed":false,"internalType":"uint256"}],"anonymous":false},{"type":"event","name":"Refunded","inputs":[{"name":"jobId","type":"uint256","indexed":true,"internalType":"uint256"},{"name":"buyer","type":"address","indexed":false,"internalType":"address"},{"name":"amount","type":"uint256","indexed":false,"internalType":"uint256"}],"anonymous":false},{"type":"event","name":"Released","inputs":[{"name":"jobId","type":"uint256","indexed":true,"internalType":"uint256"},{"name":"seller","type":"address","indexed":false,"internalType":"address"},{"name":"amount","type":"uint256","indexed":false,"internalType":"uint256"}],"anonymous":false},{"type":"event","name":"WorkSubmitted","inputs":[{"name":"jobId","type":"uint256","indexed":true,"internalType":"uint256"},{"name":"workHash","type":"bytes32","indexed":false,"internalType":"bytes32"}],"anonymous":false}],"bytecode":{"object":"0x60a060405234801561000f575f5ffd5b5060405161398938038061398983398181016040528101906100319190610137565b5f73ffffffffffffffffffffffffffffffffffffffff168173ffffffffffffffffffffffffffffffffffffffff160361009f576040517f08c379a0000000000000000000000000000000000000000000000000000000008152600401610096906101bc565b60405180910390fd5b8073ffffffffffffffffffffffffffffffffffffffff1660808173ffffffffffffffffffffffffffffffffffffffff1681525050506101da565b5f5ffd5b5f73ffffffffffffffffffffffffffffffffffffffff82169050919050565b5f610106826100dd565b9050919050565b610116816100fc565b8114610120575f5ffd5b50565b5f815190506101318161010d565b92915050565b5f6020828403121561014c5761014b6100d9565b5b5f61015984828501610123565b91505092915050565b5f82825260208201905092915050565b7f496e76616c6964206172626974657200000000000000000000000000000000005f82015250565b5f6101a6600f83610162565b91506101b182610172565b602082019050919050565b5f6020820190508181035f8301526101d38161019a565b9050919050565b6080516137906101f95f395f81816117510152611c9401526137905ff3fe608060405234801561000f575f5ffd5b506004361061012a575f3560e01c80634c5d8a0f116100ab578063bdc84ac31161006f578063bdc84ac314610358578063bf22c45714610374578063c04b45e9146103a4578063cbeab516146103d4578063fe25e00a146103f25761012a565b80634c5d8a0f146102b257806380cbc6fa146102d057806386d6282c146102ee57806387bda8f21461030a578063998908951461033a5761012a565b8063278ecde1116100f2578063278ecde114610212578063317debf51461022e57806337bdc99b1461024a57806342c549c014610266578063459b860e146102965761012a565b80630a9eeded1461012e578063111730d11461014a578063121adc9f1461017a578063180aedf3146101aa5780631c376c63146101e2575b5f5ffd5b61014860048036038101906101439190612193565b610410565b005b610164600480360381019061015f91906121d1565b610654565b604051610171919061220b565b60405180910390f35b610194600480360381019061018f91906122df565b610669565b6040516101a1919061220b565b60405180910390f35b6101c460048036038101906101bf91906121d1565b610bc6565b6040516101d99998979695949392919061243c565b60405180910390f35b6101fc60048036038101906101f791906124c7565b610c8d565b604051610209919061220b565b60405180910390f35b61022c600480360381019061022791906121d1565b610cb8565b005b610248600480360381019061024391906121d1565b610f1e565b005b610264600480360381019061025f91906121d1565b61124c565b005b610280600480360381019061027b91906121d1565b611376565b60405161028d91906125bc565b60405180910390f35b6102b060048036038101906102ab91906121d1565b6113dd565b005b6102ba611516565b6040516102c7919061220b565b60405180910390f35b6102d861151b565b6040516102e5919061220b565b60405180910390f35b610308600480360381019061030391906121d1565b611522565b005b610324600480360381019061031f91906121d1565b61170f565b604051610331919061220b565b60405180910390f35b610342611748565b60405161034f919061220b565b60405180910390f35b610372600480360381019061036d91906124c7565b61174f565b005b61038e600480360381019061038991906121d1565b611ab9565b60405161039b91906126cd565b60405180910390f35b6103be60048036038101906103b991906121d1565b611c77565b6040516103cb919061220b565b60405180910390f35b6103dc611c8c565b6040516103e9919061220b565b60405180910390f35b6103fa611c92565b60405161040791906126e7565b60405180910390f35b5f60015f8481526020019081526020015f209050806001015f9054906101000a900473ffffffffffffffffffffffffffffffffffffffff1673ffffffffffffffffffffffffffffffffffffffff163373ffffffffffffffffffffffffffffffffffffffff16146104b5576040517f08c379a00000000000000000000000000000000000000000000000000000000081526004016104ac9061275a565b60405180910390fd5b5f60058111156104c8576104c76123c9565b5b8160070160089054906101000a900460ff1660058111156104ec576104eb6123c9565b5b1461052c576040517f08c379a0000000000000000000000000000000000000000000000000000000008152600401610523906127c2565b60405180910390fd5b8060040154421115610573576040517f08c379a000000000000000000000000000000000000000000000000000000000815260040161056a9061282a565b60405180910390fd5b5f5f1b82036105b7576040517f08c379a00000000000000000000000000000000000000000000000000000000081526004016105ae90612892565b60405180910390fd5b81816006018190555042816007015f6101000a81548167ffffffffffffffff021916908367ffffffffffffffff16021790555060018160070160086101000a81548160ff02191690836005811115610612576106116123c9565b5b0217905550827f8b518f883474495e3b14f695aed6ef569f74b362c5faa3c4a64f1e0f1a3b9eae8360405161064791906128b0565b60405180910390a2505050565b6004602052805f5260405f205f915090505481565b5f4285116106ac576040517f08c379a00000000000000000000000000000000000000000000000000000000081526004016106a390612913565b60405180910390fd5b5f86116106ee576040517f08c379a00000000000000000000000000000000000000000000000000000000081526004016106e59061297b565b60405180910390fd5b5f73ffffffffffffffffffffffffffffffffffffffff168873ffffffffffffffffffffffffffffffffffffffff160361075c576040517f08c379a0000000000000000000000000000000000000000000000000000000008152600401610753906129e3565b60405180910390fd5b3373ffffffffffffffffffffffffffffffffffffffff168873ffffffffffffffffffffffffffffffffffffffff16036107ca576040517f08c379a00000000000000000000000000000000000000000000000000000000081526004016107c190612a4b565b60405180910390fd5b5f5f83146107d857826107dd565b6202a3005b9050615460811015610824576040517f08c379a000000000000000000000000000000000000000000000000000000000815260040161081b90612ab3565b60405180910390fd5b62093a8081111561086a576040517f08c379a000000000000000000000000000000000000000000000000000000000815260040161086190612b1b565b60405180910390fd5b5f8585905011156108fc575f5f5b868690508110156108b75786868281811061089657610895612b39565b5b90506020020135826108a89190612b93565b91508080600101915050610878565b508781146108fa576040517f08c379a00000000000000000000000000000000000000000000000000000000081526004016108f190612c10565b60405180910390fd5b505b6109293330898b73ffffffffffffffffffffffffffffffffffffffff16611cb6909392919063ffffffff16565b5f5f81548092919061093a90612c2e565b9190505591506040518061012001604052803373ffffffffffffffffffffffffffffffffffffffff1681526020018a73ffffffffffffffffffffffffffffffffffffffff1681526020018973ffffffffffffffffffffffffffffffffffffffff1681526020018881526020018781526020018281526020015f5f1b81526020015f67ffffffffffffffff1681526020015f60058111156109dd576109dc6123c9565b5b81525060015f8481526020019081526020015f205f820151815f015f6101000a81548173ffffffffffffffffffffffffffffffffffffffff021916908373ffffffffffffffffffffffffffffffffffffffff1602179055506020820151816001015f6101000a81548173ffffffffffffffffffffffffffffffffffffffff021916908373ffffffffffffffffffffffffffffffffffffffff1602179055506040820151816002015f6101000a81548173ffffffffffffffffffffffffffffffffffffffff021916908373ffffffffffffffffffffffffffffffffffffffff160217905550606082015181600301556080820151816004015560a0820151816005015560c0820151816006015560e0820151816007015f6101000a81548167ffffffffffffffff021916908367ffffffffffffffff1602179055506101008201518160070160086101000a81548160ff02191690836005811115610b4357610b426123c9565b5b02179055509050505f858590501115610b7857848460025f8581526020019081526020015f209182610b76929190612ea7565b505b817f4d796b0cdddabfe0089286e42eab1cbf34b3bf275b8de1f4d418715f0e990957338b8b8b8b87604051610bb296959493929190612f2d565b60405180910390a250979650505050505050565b6001602052805f5260405f205f91509050805f015f9054906101000a900473ffffffffffffffffffffffffffffffffffffffff1690806001015f9054906101000a900473ffffffffffffffffffffffffffffffffffffffff1690806002015f9054906101000a900473ffffffffffffffffffffffffffffffffffffffff1690806003015490806004015490806005015490806006015490806007015f9054906101000a900467ffffffffffffffff16908060070160089054906101000a900460ff16905089565b6002602052815f5260405f208181548110610ca6575f80fd5b905f5260205f20015f91509150505481565b5f60015f8381526020019081526020015f209050805f015f9054906101000a900473ffffffffffffffffffffffffffffffffffffffff1673ffffffffffffffffffffffffffffffffffffffff163373ffffffffffffffffffffffffffffffffffffffff1614610d5c576040517f08c379a0000000000000000000000000000000000000000000000000000000008152600401610d5390612fd6565b60405180910390fd5b5f6005811115610d6f57610d6e6123c9565b5b8160070160089054906101000a900460ff166005811115610d9357610d926123c9565b5b14610dd3576040517f08c379a0000000000000000000000000000000000000000000000000000000008152600401610dca9061303e565b60405180910390fd5b80600401544211610e19576040517f08c379a0000000000000000000000000000000000000000000000000000000008152600401610e10906130a6565b60405180910390fd5b60038160070160086101000a81548160ff02191690836005811115610e4157610e406123c9565b5b0217905550610eba815f015f9054906101000a900473ffffffffffffffffffffffffffffffffffffffff168260030154836002015f9054906101000a900473ffffffffffffffffffffffffffffffffffffffff1673ffffffffffffffffffffffffffffffffffffffff16611e089092919063ffffffff16565b817f7ca5472b7ea78c2c0141c5a12ee6d170cf4ce8ed06be3d22c8252ddfc7a6a2c4825f015f9054906101000a900473ffffffffffffffffffffffffffffffffffffffff168360030154604051610f129291906130c4565b60405180910390a25050565b5f60015f8381526020019081526020015f209050805f015f9054906101000a900473ffffffffffffffffffffffffffffffffffffffff1673ffffffffffffffffffffffffffffffffffffffff163373ffffffffffffffffffffffffffffffffffffffff1614610fc2576040517f08c379a0000000000000000000000000000000000000000000000000000000008152600401610fb990612fd6565b60405180910390fd5b5f6005811115610fd557610fd46123c9565b5b8160070160089054906101000a900460ff166005811115610ff957610ff86123c9565b5b148061103a575060016005811115611014576110136123c9565b5b8160070160089054906101000a900460ff166005811115611038576110376123c9565b5b145b611079576040517f08c379a000000000000000000000000000000000000000000000000000000000815260040161107090613135565b60405180910390fd5b5f60025f8481526020019081526020015f2090505f8180549050116110d3576040517f08c379a00000000000000000000000000000000000000000000000000000000081526004016110ca9061319d565b60405180910390fd5b5f60035f8581526020019081526020015f205490508180549050811061112e576040517f08c379a000000000000000000000000000000000000000000000000000000000815260040161112590613205565b60405180910390fd5b60035f8581526020019081526020015f205f81548092919061114f90612c2e565b91905055505f82828154811061116857611167612b39565b5b905f5260205f20015490508060045f8781526020019081526020015f205f8282546111939190612b93565b9250508190555061120b846001015f9054906101000a900473ffffffffffffffffffffffffffffffffffffffff1682866002015f9054906101000a900473ffffffffffffffffffffffffffffffffffffffff1673ffffffffffffffffffffffffffffffffffffffff16611e089092919063ffffffff16565b847fd33fcd27cbfb73a2d9058c968b560ccb306500bf536133802048489ecc7355e9838360405161123d929190613223565b60405180910390a25050505050565b5f60015f8381526020019081526020015f209050805f015f9054906101000a900473ffffffffffffffffffffffffffffffffffffffff1673ffffffffffffffffffffffffffffffffffffffff163373ffffffffffffffffffffffffffffffffffffffff16146112f0576040517f08c379a00000000000000000000000000000000000000000000000000000000081526004016112e790612fd6565b60405180910390fd5b60016005811115611304576113036123c9565b5b8160070160089054906101000a900460ff166005811115611328576113276123c9565b5b14611368576040517f08c379a000000000000000000000000000000000000000000000000000000000815260040161135f90613294565b60405180910390fd5b6113728183611f57565b5050565b606060025f8381526020019081526020015f208054806020026020016040519081016040528092919081815260200182805480156113d157602002820191905f5260205f20905b8154815260200190600101908083116113bd575b50505050509050919050565b5f60015f8381526020019081526020015f20905060016005811115611405576114046123c9565b5b8160070160089054906101000a900460ff166005811115611429576114286123c9565b5b14611469576040517f08c379a000000000000000000000000000000000000000000000000000000000815260040161146090613294565b60405180910390fd5b8060050154816007015f9054906101000a900467ffffffffffffffff1667ffffffffffffffff1661149a9190612b93565b42116114db576040517f08c379a00000000000000000000000000000000000000000000000000000000081526004016114d2906132fc565b60405180910390fd5b6114e58183611f57565b817f93fb721c2c02adcc629c450452332bd9fa1dfbc41825cf28709bf21e8d19363f60405160405180910390a25050565b5f5481565b62093a8081565b5f60015f8381526020019081526020015f209050805f015f9054906101000a900473ffffffffffffffffffffffffffffffffffffffff1673ffffffffffffffffffffffffffffffffffffffff163373ffffffffffffffffffffffffffffffffffffffff16146115c6576040517f08c379a00000000000000000000000000000000000000000000000000000000081526004016115bd90612fd6565b60405180910390fd5b600160058111156115da576115d96123c9565b5b8160070160089054906101000a900460ff1660058111156115fe576115fd6123c9565b5b1461163e576040517f08c379a000000000000000000000000000000000000000000000000000000000815260040161163590613294565b60405180910390fd5b8060050154816007015f9054906101000a900467ffffffffffffffff1667ffffffffffffffff1661166f9190612b93565b4211156116b1576040517f08c379a00000000000000000000000000000000000000000000000000000000081526004016116a890613364565b60405180910390fd5b60048160070160086101000a81548160ff021916908360058111156116d9576116d86123c9565b5b0217905550817f7e3d476b0ad3176eefadbd6672356ef3884fad75f1344623a88d4a808784233660405160405180910390a25050565b5f60045f8381526020019081526020015f205460015f8481526020019081526020015f20600301546117419190613382565b9050919050565b6202a30081565b7f000000000000000000000000000000000000000000000000000000000000000073ffffffffffffffffffffffffffffffffffffffff163373ffffffffffffffffffffffffffffffffffffffff16146117dd576040517f08c379a00000000000000000000000000000000000000000000000000000000081526004016117d4906133ff565b60405180910390fd5b612710811115611822576040517f08c379a000000000000000000000000000000000000000000000000000000000815260040161181990613467565b60405180910390fd5b5f60015f8481526020019081526020015f2090506004600581111561184a576118496123c9565b5b8160070160089054906101000a900460ff16600581111561186e5761186d6123c9565b5b146118ae576040517f08c379a00000000000000000000000000000000000000000000000000000000081526004016118a5906134cf565b60405180910390fd5b5f60045f8581526020019081526020015f205482600301546118d09190613382565b90505f61271084836118e29190612cac565b6118ec919061351a565b90505f81836118fb9190613382565b9050612710851461190d576005611910565b60025b8460070160086101000a81548160ff02191690836005811115611936576119356123c9565b5b02179055505f8211156119b5576119b4846001015f9054906101000a900473ffffffffffffffffffffffffffffffffffffffff1683866002015f9054906101000a900473ffffffffffffffffffffffffffffffffffffffff1673ffffffffffffffffffffffffffffffffffffffff16611e089092919063ffffffff16565b5b5f811115611a2e57611a2d845f015f9054906101000a900473ffffffffffffffffffffffffffffffffffffffff1682866002015f9054906101000a900473ffffffffffffffffffffffffffffffffffffffff1673ffffffffffffffffffffffffffffffffffffffff16611e089092919063ffffffff16565b5b857fcd277681ae04cbd2305d1807c4c593ea528efbd104699cc96c154b938bcd2940856001015f9054906101000a900473ffffffffffffffffffffffffffffffffffffffff1684875f015f9054906101000a900473ffffffffffffffffffffffffffffffffffffffff1685604051611aa9949392919061354a565b60405180910390a2505050505050565b611ac1612084565b60015f8381526020019081526020015f20604051806101200160405290815f82015f9054906101000a900473ffffffffffffffffffffffffffffffffffffffff1673ffffffffffffffffffffffffffffffffffffffff1673ffffffffffffffffffffffffffffffffffffffff168152602001600182015f9054906101000a900473ffffffffffffffffffffffffffffffffffffffff1673ffffffffffffffffffffffffffffffffffffffff1673ffffffffffffffffffffffffffffffffffffffff168152602001600282015f9054906101000a900473ffffffffffffffffffffffffffffffffffffffff1673ffffffffffffffffffffffffffffffffffffffff1673ffffffffffffffffffffffffffffffffffffffff16815260200160038201548152602001600482015481526020016005820154815260200160068201548152602001600782015f9054906101000a900467ffffffffffffffff1667ffffffffffffffff1667ffffffffffffffff1681526020016007820160089054906101000a900460ff166005811115611c5a57611c596123c9565b5b6005811115611c6c57611c6b6123c9565b5b815250509050919050565b6003602052805f5260405f205f915090505481565b61546081565b7f000000000000000000000000000000000000000000000000000000000000000081565b5f5f8573ffffffffffffffffffffffffffffffffffffffff166323b872dd60e01b868686604051602401611cec9392919061358d565b604051602081830303815290604052907bffffffffffffffffffffffffffffffffffffffffffffffffffffffff19166020820180517bffffffffffffffffffffffffffffffffffffffffffffffffffffffff8381831617835250505050604051611d569190613614565b5f604051808303815f865af19150503d805f8114611d8f576040519150601f19603f3d011682016040523d82523d5f602084013e611d94565b606091505b5091509150818015611dc157505f81511480611dc0575080806020019051810190611dbf919061365f565b5b5b611e00576040517f08c379a0000000000000000000000000000000000000000000000000000000008152600401611df7906136d4565b60405180910390fd5b505050505050565b5f5f8473ffffffffffffffffffffffffffffffffffffffff1663a9059cbb60e01b8585604051602401611e3c9291906130c4565b604051602081830303815290604052907bffffffffffffffffffffffffffffffffffffffffffffffffffffffff19166020820180517bffffffffffffffffffffffffffffffffffffffffffffffffffffffff8381831617835250505050604051611ea69190613614565b5f604051808303815f865af19150503d805f8114611edf576040519150601f19603f3d011682016040523d82523d5f602084013e611ee4565b606091505b5091509150818015611f1157505f81511480611f10575080806020019051810190611f0f919061365f565b5b5b611f50576040517f08c379a0000000000000000000000000000000000000000000000000000000008152600401611f479061373c565b60405180910390fd5b5050505050565b60028260070160086101000a81548160ff02191690836005811115611f7f57611f7e6123c9565b5b02179055505f60045f8381526020019081526020015f20548360030154611fa69190613382565b90505f81111561202257612021836001015f9054906101000a900473ffffffffffffffffffffffffffffffffffffffff1682856002015f9054906101000a900473ffffffffffffffffffffffffffffffffffffffff1673ffffffffffffffffffffffffffffffffffffffff16611e089092919063ffffffff16565b5b817f3bfce8de0db7450cc169b94323c210e69a36c6a4a58c9f5d96bec4973adce392846001015f9054906101000a900473ffffffffffffffffffffffffffffffffffffffff16836040516120779291906130c4565b60405180910390a2505050565b6040518061012001604052805f73ffffffffffffffffffffffffffffffffffffffff1681526020015f73ffffffffffffffffffffffffffffffffffffffff1681526020015f73ffffffffffffffffffffffffffffffffffffffff1681526020015f81526020015f81526020015f81526020015f81526020015f67ffffffffffffffff1681526020015f600581111561211f5761211e6123c9565b5b81525090565b5f5ffd5b5f5ffd5b5f819050919050565b61213f8161212d565b8114612149575f5ffd5b50565b5f8135905061215a81612136565b92915050565b5f819050919050565b61217281612160565b811461217c575f5ffd5b50565b5f8135905061218d81612169565b92915050565b5f5f604083850312156121a9576121a8612125565b5b5f6121b68582860161214c565b92505060206121c78582860161217f565b9150509250929050565b5f602082840312156121e6576121e5612125565b5b5f6121f38482850161214c565b91505092915050565b6122058161212d565b82525050565b5f60208201905061221e5f8301846121fc565b92915050565b5f73ffffffffffffffffffffffffffffffffffffffff82169050919050565b5f61224d82612224565b9050919050565b61225d81612243565b8114612267575f5ffd5b50565b5f8135905061227881612254565b92915050565b5f5ffd5b5f5ffd5b5f5ffd5b5f5f83601f84011261229f5761229e61227e565b5b8235905067ffffffffffffffff8111156122bc576122bb612282565b5b6020830191508360208202830111156122d8576122d7612286565b5b9250929050565b5f5f5f5f5f5f5f60c0888a0312156122fa576122f9612125565b5b5f6123078a828b0161226a565b97505060206123188a828b0161226a565b96505060406123298a828b0161214c565b955050606061233a8a828b0161214c565b945050608088013567ffffffffffffffff81111561235b5761235a612129565b5b6123678a828b0161228a565b935093505060a061237a8a828b0161214c565b91505092959891949750929550565b61239281612243565b82525050565b6123a181612160565b82525050565b5f67ffffffffffffffff82169050919050565b6123c3816123a7565b82525050565b7f4e487b71000000000000000000000000000000000000000000000000000000005f52602160045260245ffd5b60068110612407576124066123c9565b5b50565b5f819050612417826123f6565b919050565b5f6124268261240a565b9050919050565b6124368161241c565b82525050565b5f610120820190506124505f83018c612389565b61245d602083018b612389565b61246a604083018a612389565b61247760608301896121fc565b61248460808301886121fc565b61249160a08301876121fc565b61249e60c0830186612398565b6124ab60e08301856123ba565b6124b961010083018461242d565b9a9950505050505050505050565b5f5f604083850312156124dd576124dc612125565b5b5f6124ea8582860161214c565b92505060206124fb8582860161214c565b9150509250929050565b5f81519050919050565b5f82825260208201905092915050565b5f819050602082019050919050565b6125378161212d565b82525050565b5f612548838361252e565b60208301905092915050565b5f602082019050919050565b5f61256a82612505565b612574818561250f565b935061257f8361251f565b805f5b838110156125af578151612596888261253d565b97506125a183612554565b925050600181019050612582565b5085935050505092915050565b5f6020820190508181035f8301526125d48184612560565b905092915050565b6125e581612243565b82525050565b6125f481612160565b82525050565b612603816123a7565b82525050565b6126128161241c565b82525050565b61012082015f82015161262d5f8501826125dc565b50602082015161264060208501826125dc565b50604082015161265360408501826125dc565b506060820151612666606085018261252e565b506080820151612679608085018261252e565b5060a082015161268c60a085018261252e565b5060c082015161269f60c08501826125eb565b5060e08201516126b260e08501826125fa565b506101008201516126c7610100850182612609565b50505050565b5f610120820190506126e15f830184612618565b92915050565b5f6020820190506126fa5f830184612389565b92915050565b5f82825260208201905092915050565b7f4e6f742073656c6c6572000000000000000000000000000000000000000000005f82015250565b5f612744600a83612700565b915061274f82612710565b602082019050919050565b5f6020820190508181035f83015261277181612738565b9050919050565b7f416c7265616479207375626d69747465640000000000000000000000000000005f82015250565b5f6127ac601183612700565b91506127b782612778565b602082019050919050565b5f6020820190508181035f8301526127d9816127a0565b9050919050565b7f446561646c696e652070617373656400000000000000000000000000000000005f82015250565b5f612814600f83612700565b915061281f826127e0565b602082019050919050565b5f6020820190508181035f83015261284181612808565b9050919050565b7f456d7074792068617368000000000000000000000000000000000000000000005f82015250565b5f61287c600a83612700565b915061288782612848565b602082019050919050565b5f6020820190508181035f8301526128a981612870565b9050919050565b5f6020820190506128c35f830184612398565b92915050565b7f446561646c696e6520696e2070617374000000000000000000000000000000005f82015250565b5f6128fd601083612700565b9150612908826128c9565b602082019050919050565b5f6020820190508181035f83015261292a816128f1565b9050919050565b7f416d6f756e74207a65726f0000000000000000000000000000000000000000005f82015250565b5f612965600b83612700565b915061297082612931565b602082019050919050565b5f6020820190508181035f83015261299281612959565b9050919050565b7f496e76616c69642073656c6c65720000000000000000000000000000000000005f82015250565b5f6129cd600e83612700565b91506129d882612999565b602082019050919050565b5f6020820190508181035f8301526129fa816129c1565b9050919050565b7f42757965722063616e6e6f742062652073656c6c6572000000000000000000005f82015250565b5f612a35601683612700565b9150612a4082612a01565b602082019050919050565b5f6020820190508181035f830152612a6281612a29565b9050919050565b7f57696e646f7720746f6f2073686f727420286d696e20366829000000000000005f82015250565b5f612a9d601983612700565b9150612aa882612a69565b602082019050919050565b5f6020820190508181035f830152612aca81612a91565b9050919050565b7f57696e646f7720746f6f206c6f6e6720286d61782037642900000000000000005f82015250565b5f612b05601883612700565b9150612b1082612ad1565b602082019050919050565b5f6020820190508181035f830152612b3281612af9565b9050919050565b7f4e487b71000000000000000000000000000000000000000000000000000000005f52603260045260245ffd5b7f4e487b71000000000000000000000000000000000000000000000000000000005f52601160045260245ffd5b5f612b9d8261212d565b9150612ba88361212d565b9250828201905080821115612bc057612bbf612b66565b5b92915050565b7f4d696c6573746f6e657320213d20616d6f756e740000000000000000000000005f82015250565b5f612bfa601483612700565b9150612c0582612bc6565b602082019050919050565b5f6020820190508181035f830152612c2781612bee565b9050919050565b5f612c388261212d565b91507fffffffffffffffffffffffffffffffffffffffffffffffffffffffffffffffff8203612c6a57612c69612b66565b5b600182019050919050565b7f4e487b71000000000000000000000000000000000000000000000000000000005f52604160045260245ffd5b5f81549050919050565b5f612cb68261212d565b9150612cc18361212d565b9250828202612ccf8161212d565b91508282048414831517612ce657612ce5612b66565b5b5092915050565b5f8190506001806001038301049050919050565b5f819050815f5260205f209050919050565b5f82821b905092915050565b5f60088302612d4e7fffffffffffffffffffffffffffffffffffffffffffffffffffffffffffffffff82612d13565b612d588683612d13565b95508019841693508086168417925050509392505050565b5f819050919050565b5f612d93612d8e612d898461212d565b612d70565b61212d565b9050919050565b5f819050919050565b612dac83612d79565b612dc0612db882612d9a565b848454612d1f565b825550505050565b5f5f905090565b612dd7612dc8565b612de2818484612da3565b505050565b5f5b82811015612e0857612dfd5f828401612dcf565b600181019050612de9565b505050565b81831015612e4457612e1e82612ced565b612e2784612ced565b612e3083612d01565b818101612e3f83850382612de7565b505050505b505050565b68010000000000000000821115612e6357612e62612c75565b5b612e6c81612ca2565b828255612e7a838284612e0d565b505050565b5f82905092915050565b5f8135612e9581612136565b80915050919050565b5f819050919050565b612eb18383612e7f565b67ffffffffffffffff811115612eca57612ec9612c75565b5b612ed48183612e49565b612edd83612e9e565b612ee683612d01565b600183045f5b81811015612f23575f612efe85612e89565b612f0781612d9a565b8092506020870196505050808285015550600181019050612eec565b5050505050505050565b5f60c082019050612f405f830189612389565b612f4d6020830188612389565b612f5a6040830187612389565b612f6760608301866121fc565b612f7460808301856121fc565b612f8160a08301846121fc565b979650505050505050565b7f4e6f7420627579657200000000000000000000000000000000000000000000005f82015250565b5f612fc0600983612700565b9150612fcb82612f8c565b602082019050919050565b5f6020820190508181035f830152612fed81612fb4565b9050919050565b7f576f726b20776173207375626d697474656400000000000000000000000000005f82015250565b5f613028601283612700565b915061303382612ff4565b602082019050919050565b5f6020820190508181035f8301526130558161301c565b9050919050565b7f446561646c696e65206e6f7420706173736564000000000000000000000000005f82015250565b5f613090601383612700565b915061309b8261305c565b602082019050919050565b5f6020820190508181035f8301526130bd81613084565b9050919050565b5f6040820190506130d75f830185612389565b6130e460208301846121fc565b9392505050565b7f4a6f6220636c6f736564000000000000000000000000000000000000000000005f82015250565b5f61311f600a83612700565b915061312a826130eb565b602082019050919050565b5f6020820190508181035f83015261314c81613113565b9050919050565b7f4e6f206d696c6573746f6e6573000000000000000000000000000000000000005f82015250565b5f613187600d83612700565b915061319282613153565b602082019050919050565b5f6020820190508181035f8301526131b48161317b565b9050919050565b7f416c6c206d696c6573746f6e65732072656c65617365640000000000000000005f82015250565b5f6131ef601783612700565b91506131fa826131bb565b602082019050919050565b5f6020820190508181035f83015261321c816131e3565b9050919050565b5f6040820190506132365f8301856121fc565b61324360208301846121fc565b9392505050565b7f576f726b206e6f74207375626d697474656400000000000000000000000000005f82015250565b5f61327e601283612700565b91506132898261324a565b602082019050919050565b5f6020820190508181035f8301526132ab81613272565b9050919050565b7f57696e646f77207374696c6c206f70656e0000000000000000000000000000005f82015250565b5f6132e6601183612700565b91506132f1826132b2565b602082019050919050565b5f6020820190508181035f830152613313816132da565b9050919050565b7f57696e646f7720636c6f736564000000000000000000000000000000000000005f82015250565b5f61334e600d83612700565b91506133598261331a565b602082019050919050565b5f6020820190508181035f83015261337b81613342565b9050919050565b5f61338c8261212d565b91506133978361212d565b92508282039050818111156133af576133ae612b66565b5b92915050565b7f4e6f7420617262697465720000000000000000000000000000000000000000005f82015250565b5f6133e9600b83612700565b91506133f4826133b5565b602082019050919050565b5f6020820190508181035f830152613416816133dd565b9050919050565b7f627073203e2031303030300000000000000000000000000000000000000000005f82015250565b5f613451600b83612700565b915061345c8261341d565b602082019050919050565b5f6020820190508181035f83015261347e81613445565b9050919050565b7f4e6f7420646973707574656400000000000000000000000000000000000000005f82015250565b5f6134b9600c83612700565b91506134c482613485565b602082019050919050565b5f6020820190508181035f8301526134e6816134ad565b9050919050565b7f4e487b71000000000000000000000000000000000000000000000000000000005f52601260045260245ffd5b5f6135248261212d565b915061352f8361212d565b92508261353f5761353e6134ed565b5b828204905092915050565b5f60808201905061355d5f830187612389565b61356a60208301866121fc565b6135776040830185612389565b61358460608301846121fc565b95945050505050565b5f6060820190506135a05f830186612389565b6135ad6020830185612389565b6135ba60408301846121fc565b949350505050565b5f81519050919050565b5f81905092915050565b8281835e5f83830152505050565b5f6135ee826135c2565b6135f881856135cc565b93506136088185602086016135d6565b80840191505092915050565b5f61361f82846135e4565b915081905092915050565b5f8115159050919050565b61363e8161362a565b8114613648575f5ffd5b50565b5f8151905061365981613635565b92915050565b5f6020828403121561367457613673612125565b5b5f6136818482850161364b565b91505092915050565b7f5472616e7366657246726f6d206661696c6564000000000000000000000000005f82015250565b5f6136be601383612700565b91506136c98261368a565b602082019050919050565b5f6020820190508181035f8301526136eb816136b2565b9050919050565b7f5472616e73666572206661696c656400000000000000000000000000000000005f82015250565b5f613726600f83612700565b9150613731826136f2565b602082019050919050565b5f6020820190508181035f8301526137538161371a565b905091905056fea26469706673582212201e2d7798b2ea1dcbd24671e39a144ff3a0f0315c95ee60e233c50456c9103c9d64736f6c63430008210033","linkReferences":{}},"methodIdentifiers":{"DEFAULT_DISPUTE_WINDOW()":"99890895","MAX_DISPUTE_WINDOW()":"80cbc6fa","MIN_DISPUTE_WINDOW()":"cbeab516","arbiter()":"fe25e00a","autoRelease(uint256)":"459b860e","createJob(address,address,uint256,uint256,uint256[],uint256)":"121adc9f","dispute(uint256)":"86d6282c","getJob(uint256)":"bf22c457","getMilestones(uint256)":"42c549c0","jobCount()":"4c5d8a0f","jobs(uint256)":"180aedf3","milestones(uint256,uint256)":"1c376c63","nextMilestone(uint256)":"c04b45e9","refund(uint256)":"278ecde1","release(uint256)":"37bdc99b","releaseMilestone(uint256)":"317debf5","releasedAmount(uint256)":"111730d1","remainingAmount(uint256)":"87bda8f2","resolveDispute(uint256,uint256)":"bdc84ac3","submitWork(uint256,bytes32)":"0a9eeded"},"id":0}