{"abi":[{"type":"constructor","inputs":[{"name":"_arbiter","type":"address","internalType":"address"},{"name":"_feeCollector","type":"address","internalType":"address"}],"stateMutability":"nonpayable"},{"type":"function","name":"ARBITER","inputs":[],"outputs":[{"name":"","type":"address","internalType":"address"}],"stateMutability":"view"},{"type":"function","name":"DEFAULT_DISPUTE_WINDOW","inputs":[],"outputs":[{"name":"","type":"uint256","internalType":"uint256"}],"stateMutability":"view"},{"type":"function","name":"MAX_DISPUTE_WINDOW","inputs":[],"outputs":[{"name":"","type":"uint256","internalType":"uint256"}],"stateMutability":"view"},{"type":"function","name":"MAX_PROTOCOL_FEE_BPS","inputs":[],"outputs":[{"name":"","type":"uint256","internalType":"uint256"}],"stateMutability":"view"},{"type":"function","name":"MIN_DISPUTE_WINDOW","inputs":[],"outputs":[{"name":"","type":"uint256","internalType":"uint256"}],"stateMutability":"view"},{"type":"function","name":"arbiterTimeoutRelease","inputs":[{"name":"jobId","type":"uint256","internalType":"uint256"}],"outputs":[],"stateMutability":"nonpayable"},{"type":"function","name":"arbiterTimeoutSeconds","inputs":[],"outputs":[{"name":"","type":"uint256","internalType":"uint256"}],"stateMutability":"view"},{"type":"function","name":"autoRelease","inputs":[{"name":"jobId","type":"uint256","internalType":"uint256"}],"outputs":[],"stateMutability":"nonpayable"},{"type":"function","name":"createJob","inputs":[{"name":"seller","type":"address","internalType":"address"},{"name":"token","type":"address","internalType":"address"},{"name":"amount","type":"uint256","internalType":"uint256"},{"name":"deadline","type":"uint256","internalType":"uint256"},{"name":"milestoneAmounts","type":"uint256[]","internalType":"uint256[]"},{"name":"disputeWindowSeconds","type":"uint256","internalType":"uint256"}],"outputs":[{"name":"jobId","type":"uint256","internalType":"uint256"}],"stateMutability":"nonpayable"},{"type":"function","name":"dispute","inputs":[{"name":"jobId","type":"uint256","internalType":"uint256"}],"outputs":[],"stateMutability":"nonpayable"},{"type":"function","name":"feeCollector","inputs":[],"outputs":[{"name":"","type":"address","internalType":"address"}],"stateMutability":"view"},{"type":"function","name":"getJob","inputs":[{"name":"jobId","type":"uint256","internalType":"uint256"}],"outputs":[{"name":"","type":"tuple","internalType":"struct AgentEscrowV4.Job","components":[{"name":"buyer","type":"address","internalType":"address"},{"name":"seller","type":"address","internalType":"address"},{"name":"token","type":"address","internalType":"address"},{"name":"amount","type":"uint256","internalType":"uint256"},{"name":"deadline","type":"uint256","internalType":"uint256"},{"name":"disputeWindow","type":"uint256","internalType":"uint256"},{"name":"workHash","type":"bytes32","internalType":"bytes32"},{"name":"submittedAt","type":"uint64","internalType":"uint64"},{"name":"disputedAt","type":"uint64","internalType":"uint64"},{"name":"status","type":"uint8","internalType":"enum AgentEscrowV4.Status"}]}],"stateMutability":"view"},{"type":"function","name":"getMilestones","inputs":[{"name":"jobId","type":"uint256","internalType":"uint256"}],"outputs":[{"name":"","type":"uint256[]","internalType":"uint256[]"}],"stateMutability":"view"},{"type":"function","name":"jobCount","inputs":[],"outputs":[{"name":"","type":"uint256","internalType":"uint256"}],"stateMutability":"view"},{"type":"function","name":"jobRated","inputs":[{"name":"","type":"uint256","internalType":"uint256"}],"outputs":[{"name":"","type":"bool","internalType":"bool"}],"stateMutability":"view"},{"type":"function","name":"jobs","inputs":[{"name":"","type":"uint256","internalType":"uint256"}],"outputs":[{"name":"buyer","type":"address","internalType":"address"},{"name":"seller","type":"address","internalType":"address"},{"name":"token","type":"address","internalType":"address"},{"name":"amount","type":"uint256","internalType":"uint256"},{"name":"deadline","type":"uint256","internalType":"uint256"},{"name":"disputeWindow","type":"uint256","internalType":"uint256"},{"name":"workHash","type":"bytes32","internalType":"bytes32"},{"name":"submittedAt","type":"uint64","internalType":"uint64"},{"name":"disputedAt","type":"uint64","internalType":"uint64"},{"name":"status","type":"uint8","internalType":"enum AgentEscrowV4.Status"}],"stateMutability":"view"},{"type":"function","name":"milestones","inputs":[{"name":"","type":"uint256","internalType":"uint256"},{"name":"","type":"uint256","internalType":"uint256"}],"outputs":[{"name":"","type":"uint256","internalType":"uint256"}],"stateMutability":"view"},{"type":"function","name":"nextMilestone","inputs":[{"name":"","type":"uint256","internalType":"uint256"}],"outputs":[{"name":"","type":"uint256","internalType":"uint256"}],"stateMutability":"view"},{"type":"function","name":"protocolFeeBps","inputs":[],"outputs":[{"name":"","type":"uint256","internalType":"uint256"}],"stateMutability":"view"},{"type":"function","name":"rateJob","inputs":[{"name":"jobId","type":"uint256","internalType":"uint256"},{"name":"rating","type":"uint8","internalType":"uint8"}],"outputs":[],"stateMutability":"nonpayable"},{"type":"function","name":"refund","inputs":[{"name":"jobId","type":"uint256","internalType":"uint256"}],"outputs":[],"stateMutability":"nonpayable"},{"type":"function","name":"release","inputs":[{"name":"jobId","type":"uint256","internalType":"uint256"}],"outputs":[],"stateMutability":"nonpayable"},{"type":"function","name":"releaseMilestone","inputs":[{"name":"jobId","type":"uint256","internalType":"uint256"}],"outputs":[],"stateMutability":"nonpayable"},{"type":"function","name":"releasedAmount","inputs":[{"name":"","type":"uint256","internalType":"uint256"}],"outputs":[{"name":"","type":"uint256","internalType":"uint256"}],"stateMutability":"view"},{"type":"function","name":"remainingAmount","inputs":[{"name":"jobId","type":"uint256","internalType":"uint256"}],"outputs":[{"name":"","type":"uint256","internalType":"uint256"}],"stateMutability":"view"},{"type":"function","name":"reputation","inputs":[{"name":"","type":"address","internalType":"address"}],"outputs":[{"name":"totalRatings","type":"uint256","internalType":"uint256"},{"name":"ratingCount","type":"uint256","internalType":"uint256"},{"name":"completedJobs","type":"uint256","internalType":"uint256"},{"name":"disputedJobs","type":"uint256","internalType":"uint256"}],"stateMutability":"view"},{"type":"function","name":"resolveDispute","inputs":[{"name":"jobId","type":"uint256","internalType":"uint256"},{"name":"sellerBps","type":"uint256","internalType":"uint256"}],"outputs":[],"stateMutability":"nonpayable"},{"type":"function","name":"sellerRating","inputs":[{"name":"seller","type":"address","internalType":"address"}],"outputs":[{"name":"avgX100","type":"uint256","internalType":"uint256"},{"name":"count","type":"uint256","internalType":"uint256"}],"stateMutability":"view"},{"type":"function","name":"sellerStats","inputs":[{"name":"seller","type":"address","internalType":"address"}],"outputs":[{"name":"completedJobs","type":"uint256","internalType":"uint256"},{"name":"disputedJobs","type":"uint256","internalType":"uint256"},{"name":"avgRatingX100","type":"uint256","internalType":"uint256"},{"name":"ratingCount","type":"uint256","internalType":"uint256"}],"stateMutability":"view"},{"type":"function","name":"setArbiterTimeout","inputs":[{"name":"seconds_","type":"uint256","internalType":"uint256"}],"outputs":[],"stateMutability":"nonpayable"},{"type":"function","name":"setFeeCollector","inputs":[{"name":"newCollector","type":"address","internalType":"address"}],"outputs":[],"stateMutability":"nonpayable"},{"type":"function","name":"setProtocolFee","inputs":[{"name":"bps","type":"uint256","internalType":"uint256"}],"outputs":[],"stateMutability":"nonpayable"},{"type":"function","name":"submitWork","inputs":[{"name":"jobId","type":"uint256","internalType":"uint256"},{"name":"workHash","type":"bytes32","internalType":"bytes32"}],"outputs":[],"stateMutability":"nonpayable"},{"type":"event","name":"ArbiterTimeoutRelease","inputs":[{"name":"jobId","type":"uint256","indexed":true,"internalType":"uint256"}],"anonymous":false},{"type":"event","name":"AutoReleased","inputs":[{"name":"jobId","type":"uint256","indexed":true,"internalType":"uint256"}],"anonymous":false},{"type":"event","name":"DisputeResolved","inputs":[{"name":"jobId","type":"uint256","indexed":true,"internalType":"uint256"},{"name":"seller","type":"address","indexed":false,"internalType":"address"},{"name":"sellerAmount","type":"uint256","indexed":false,"internalType":"uint256"},{"name":"buyer","type":"address","indexed":false,"internalType":"address"},{"name":"buyerAmount","type":"uint256","indexed":false,"internalType":"uint256"},{"name":"feeAmount","type":"uint256","indexed":false,"internalType":"uint256"}],"anonymous":false},{"type":"event","name":"Disputed","inputs":[{"name":"jobId","type":"uint256","indexed":true,"internalType":"uint256"},{"name":"disputedAt","type":"uint64","indexed":false,"internalType":"uint64"}],"anonymous":false},{"type":"event","name":"FeeCollectorUpdated","inputs":[{"name":"newCollector","type":"address","indexed":false,"internalType":"address"}],"anonymous":false},{"type":"event","name":"JobCreated","inputs":[{"name":"jobId","type":"uint256","indexed":true,"internalType":"uint256"},{"name":"buyer","type":"address","indexed":false,"internalType":"address"},{"name":"seller","type":"address","indexed":false,"internalType":"address"},{"name":"token","type":"address","indexed":false,"internalType":"address"},{"name":"amount","type":"uint256","indexed":false,"internalType":"uint256"},{"name":"deadline","type":"uint256","indexed":false,"internalType":"uint256"},{"name":"disputeWindow","type":"uint256","indexed":false,"internalType":"uint256"}],"anonymous":false},{"type":"event","name":"MilestoneReleased","inputs":[{"name":"jobId","type":"uint256","indexed":true,"internalType":"uint256"},{"name":"milestoneIdx","type":"uint256","indexed":false,"internalType":"uint256"},{"name":"amount","type":"uint256","indexed":false,"internalType":"uint256"}],"anonymous":false},{"type":"event","name":"ProtocolFeeUpdated","inputs":[{"name":"newBps","type":"uint256","indexed":false,"internalType":"uint256"}],"anonymous":false},{"type":"event","name":"Refunded","inputs":[{"name":"jobId","type":"uint256","indexed":true,"internalType":"uint256"},{"name":"buyer","type":"address","indexed":false,"internalType":"address"},{"name":"amount","type":"uint256","indexed":false,"internalType":"uint256"}],"anonymous":false},{"type":"event","name":"Released","inputs":[{"name":"jobId","type":"uint256","indexed":true,"internalType":"uint256"},{"name":"seller","type":"address","indexed":false,"internalType":"address"},{"name":"sellerAmount","type":"uint256","indexed":false,"internalType":"uint256"},{"name":"feeAmount","type":"uint256","indexed":false,"internalType":"uint256"}],"anonymous":false},{"type":"event","name":"SellerRated","inputs":[{"name":"jobId","type":"uint256","indexed":true,"internalType":"uint256"},{"name":"seller","type":"address","indexed":true,"internalType":"address"},{"name":"rating","type":"uint8","indexed":false,"internalType":"uint8"}],"anonymous":false},{"type":"event","name":"WorkSubmitted","inputs":[{"name":"jobId","type":"uint256","indexed":true,"internalType":"uint256"},{"name":"workHash","type":"bytes32","indexed":false,"internalType":"bytes32"}],"anonymous":false}],"bytecode":{"object":"0x60a060405234801561000f575f5ffd5b50604051614f2e380380614f2e833981810160405281019061003191906101f7565b5f73ffffffffffffffffffffffffffffffffffffffff168273ffffffffffffffffffffffffffffffffffffffff160361009f576040517f08c379a00000000000000000000000000000000000000000000000000000000081526004016100969061028f565b60405180910390fd5b5f73ffffffffffffffffffffffffffffffffffffffff168173ffffffffffffffffffffffffffffffffffffffff160361010d576040517f08c379a0000000000000000000000000000000000000000000000000000000008152600401610104906102f7565b60405180910390fd5b8173ffffffffffffffffffffffffffffffffffffffff1660808173ffffffffffffffffffffffffffffffffffffffff1681525050805f5f6101000a81548173ffffffffffffffffffffffffffffffffffffffff021916908373ffffffffffffffffffffffffffffffffffffffff160217905550603260018190555062093a806002819055505050610315565b5f5ffd5b5f73ffffffffffffffffffffffffffffffffffffffff82169050919050565b5f6101c68261019d565b9050919050565b6101d6816101bc565b81146101e0575f5ffd5b50565b5f815190506101f1816101cd565b92915050565b5f5f6040838503121561020d5761020c610199565b5b5f61021a858286016101e3565b925050602061022b858286016101e3565b9150509250929050565b5f82825260208201905092915050565b7f496e76616c6964206172626974657200000000000000000000000000000000005f82015250565b5f610279600f83610235565b915061028482610245565b602082019050919050565b5f6020820190508181035f8301526102a68161026d565b9050919050565b7f496e76616c696420666565436f6c6c6563746f720000000000000000000000005f82015250565b5f6102e1601483610235565b91506102ec826102ad565b602082019050919050565b5f6020820190508181035f83015261030e816102d5565b9050919050565b608051614be56103495f395f818161134e01528181611ae201528181611e5901528181611e8401526120250152614be55ff3fe608060405234801561000f575f5ffd5b50600436106101f9575f3560e01c8063787dce3d11610118578063bdc84ac3116100ab578063c8c3487b1161007a578063c8c3487b146105f0578063cbeab5161461060c578063cfa56e211461062a578063d0e7efee1461065a578063e5b0117a14610678576101f9565b8063bdc84ac314610556578063bf22c45714610572578063c04b45e9146105a2578063c415b95c146105d2576101f9565b8063904cae5c116100e7578063904cae5c146104cb57806399890895146104e9578063a42dce8014610507578063b9f7945114610523576101f9565b8063787dce3d1461044557806380cbc6fa1461046157806386d6282c1461047f57806387bda8f21461049b576101f9565b8063317debf511610190578063459b860e1161015f578063459b860e146103bc5780634c5d8a0f146103d85780636bcaaa78146103f65780636d947e4b14610427576101f9565b8063317debf51461033657806335659fb81461035257806337bdc99b1461037057806342c549c01461038c576101f9565b8063180aedf3116101cc578063180aedf3146102955780631c376c63146102ce578063278ecde1146102fe5780632f3d17291461031a576101f9565b80630a9eeded146101fd5780631029126314610219578063111730d114610235578063121adc9f14610265575b5f5ffd5b6102176004803603810190610212919061315e565b6106ab565b005b610233600480360381019061022e919061319c565b6108ef565b005b61024f600480360381019061024a919061319c565b610a27565b60405161025c91906131d6565b60405180910390f35b61027f600480360381019061027a91906132aa565b610a3c565b60405161028c91906131d6565b60405180910390f35b6102af60048036038101906102aa919061319c565b610fda565b6040516102c59a99989796959493929190613407565b60405180910390f35b6102e860048036038101906102e391906134a1565b6110bb565b6040516102f591906131d6565b60405180910390f35b6103186004803603810190610313919061319c565b6110e6565b005b610334600480360381019061032f919061319c565b61134c565b005b610350600480360381019061034b919061319c565b61142a565b005b61035a611758565b60405161036791906131d6565b60405180910390f35b61038a6004803603810190610385919061319c565b61175e565b005b6103a660048036038101906103a1919061319c565b611888565b6040516103b39190613596565b60405180910390f35b6103d660048036038101906103d1919061319c565b6118ef565b005b6103e0611a28565b6040516103ed91906131d6565b60405180910390f35b610410600480360381019061040b91906135b6565b611a2e565b60405161041e9291906135e1565b60405180910390f35b61042f611ada565b60405161043c91906131d6565b60405180910390f35b61045f600480360381019061045a919061319c565b611ae0565b005b610469611bf4565b60405161047691906131d6565b60405180910390f35b6104996004803603810190610494919061319c565b611bfb565b005b6104b560048036038101906104b0919061319c565b611e1e565b6040516104c291906131d6565b60405180910390f35b6104d3611e57565b6040516104e09190613608565b60405180910390f35b6104f1611e7b565b6040516104fe91906131d6565b60405180910390f35b610521600480360381019061051c91906135b6565b611e82565b005b61053d600480360381019061053891906135b6565b611ff7565b60405161054d9493929190613621565b60405180910390f35b610570600480360381019061056b91906134a1565b612023565b005b61058c6004803603810190610587919061319c565b61244c565b604051610599919061376a565b60405180910390f35b6105bc60048036038101906105b7919061319c565b61263c565b6040516105c991906131d6565b60405180910390f35b6105da612651565b6040516105e79190613608565b60405180910390f35b61060a600480360381019061060591906137ba565b612675565b005b6106146129be565b60405161062191906131d6565b60405180910390f35b610644600480360381019061063f919061319c565b6129c4565b6040516106519190613812565b60405180910390f35b6106626129e1565b60405161066f91906131d6565b60405180910390f35b610692600480360381019061068d91906135b6565b6129e7565b6040516106a29493929190613621565b60405180910390f35b5f60045f8481526020019081526020015f209050806001015f9054906101000a900473ffffffffffffffffffffffffffffffffffffffff1673ffffffffffffffffffffffffffffffffffffffff163373ffffffffffffffffffffffffffffffffffffffff1614610750576040517f08c379a000000000000000000000000000000000000000000000000000000000815260040161074790613885565b60405180910390fd5b5f600581111561076357610762613394565b5b8160070160109054906101000a900460ff16600581111561078757610786613394565b5b146107c7576040517f08c379a00000000000000000000000000000000000000000000000000000000081526004016107be906138ed565b60405180910390fd5b806004015442111561080e576040517f08c379a000000000000000000000000000000000000000000000000000000000815260040161080590613955565b60405180910390fd5b5f5f1b8203610852576040517f08c379a0000000000000000000000000000000000000000000000000000000008152600401610849906139bd565b60405180910390fd5b81816006018190555042816007015f6101000a81548167ffffffffffffffff021916908367ffffffffffffffff16021790555060018160070160106101000a81548160ff021916908360058111156108ad576108ac613394565b5b0217905550827f8b518f883474495e3b14f695aed6ef569f74b362c5faa3c4a64f1e0f1a3b9eae836040516108e291906139db565b60405180910390a2505050565b5f60045f8381526020019081526020015f2090506004600581111561091757610916613394565b5b8160070160109054906101000a900460ff16600581111561093b5761093a613394565b5b1461097b576040517f08c379a000000000000000000000000000000000000000000000000000000000815260040161097290613a3e565b60405180910390fd5b6002548160070160089054906101000a900467ffffffffffffffff1667ffffffffffffffff166109ab9190613a89565b42116109ec576040517f08c379a00000000000000000000000000000000000000000000000000000000081526004016109e390613b06565b60405180910390fd5b6109f68183612aa5565b817f102b954abfb1be7fb612ab0f30bdcc4a2694a083e215f2cb7d72d55628c2378860405160405180910390a25050565b6007602052805f5260405f205f915090505481565b5f428511610a7f576040517f08c379a0000000000000000000000000000000000000000000000000000000008152600401610a7690613b6e565b60405180910390fd5b5f8611610ac1576040517f08c379a0000000000000000000000000000000000000000000000000000000008152600401610ab890613bd6565b60405180910390fd5b5f73ffffffffffffffffffffffffffffffffffffffff168873ffffffffffffffffffffffffffffffffffffffff1603610b2f576040517f08c379a0000000000000000000000000000000000000000000000000000000008152600401610b2690613c3e565b60405180910390fd5b3373ffffffffffffffffffffffffffffffffffffffff168873ffffffffffffffffffffffffffffffffffffffff1603610b9d576040517f08c379a0000000000000000000000000000000000000000000000000000000008152600401610b9490613ca6565b60405180910390fd5b5f5f8314610bab5782610bb0565b6202a3005b9050615460811015610bf7576040517f08c379a0000000000000000000000000000000000000000000000000000000008152600401610bee90613d0e565b60405180910390fd5b62093a80811115610c3d576040517f08c379a0000000000000000000000000000000000000000000000000000000008152600401610c3490613d76565b60405180910390fd5b5f858590501115610ccf575f5f5b86869050811015610c8a57868682818110610c6957610c68613d94565b5b9050602002013582610c7b9190613a89565b91508080600101915050610c4b565b50878114610ccd576040517f08c379a0000000000000000000000000000000000000000000000000000000008152600401610cc490613e0b565b60405180910390fd5b505b610cfc3330898b73ffffffffffffffffffffffffffffffffffffffff16612ce0909392919063ffffffff16565b60035f815480929190610d0e90613e29565b9190505591506040518061014001604052803373ffffffffffffffffffffffffffffffffffffffff1681526020018a73ffffffffffffffffffffffffffffffffffffffff1681526020018973ffffffffffffffffffffffffffffffffffffffff1681526020018881526020018781526020018281526020015f5f1b81526020015f67ffffffffffffffff1681526020015f67ffffffffffffffff1681526020015f6005811115610dc157610dc0613394565b5b81525060045f8481526020019081526020015f205f820151815f015f6101000a81548173ffffffffffffffffffffffffffffffffffffffff021916908373ffffffffffffffffffffffffffffffffffffffff1602179055506020820151816001015f6101000a81548173ffffffffffffffffffffffffffffffffffffffff021916908373ffffffffffffffffffffffffffffffffffffffff1602179055506040820151816002015f6101000a81548173ffffffffffffffffffffffffffffffffffffffff021916908373ffffffffffffffffffffffffffffffffffffffff160217905550606082015181600301556080820151816004015560a0820151816005015560c0820151816006015560e0820151816007015f6101000a81548167ffffffffffffffff021916908367ffffffffffffffff1602179055506101008201518160070160086101000a81548167ffffffffffffffff021916908367ffffffffffffffff1602179055506101208201518160070160106101000a81548160ff02191690836005811115610f5757610f56613394565b5b02179055509050505f858590501115610f8c57848460055f8581526020019081526020015f209182610f8a9291906140a2565b505b817f4d796b0cdddabfe0089286e42eab1cbf34b3bf275b8de1f4d418715f0e990957338b8b8b8b87604051610fc696959493929190614128565b60405180910390a250979650505050505050565b6004602052805f5260405f205f91509050805f015f9054906101000a900473ffffffffffffffffffffffffffffffffffffffff1690806001015f9054906101000a900473ffffffffffffffffffffffffffffffffffffffff1690806002015f9054906101000a900473ffffffffffffffffffffffffffffffffffffffff1690806003015490806004015490806005015490806006015490806007015f9054906101000a900467ffffffffffffffff16908060070160089054906101000a900467ffffffffffffffff16908060070160109054906101000a900460ff1690508a565b6005602052815f5260405f2081815481106110d4575f80fd5b905f5260205f20015f91509150505481565b5f60045f8381526020019081526020015f209050805f015f9054906101000a900473ffffffffffffffffffffffffffffffffffffffff1673ffffffffffffffffffffffffffffffffffffffff163373ffffffffffffffffffffffffffffffffffffffff161461118a576040517f08c379a0000000000000000000000000000000000000000000000000000000008152600401611181906141d1565b60405180910390fd5b5f600581111561119d5761119c613394565b5b8160070160109054906101000a900460ff1660058111156111c1576111c0613394565b5b14611201576040517f08c379a00000000000000000000000000000000000000000000000000000000081526004016111f890614239565b60405180910390fd5b80600401544211611247576040517f08c379a000000000000000000000000000000000000000000000000000000000815260040161123e906142a1565b60405180910390fd5b60038160070160106101000a81548160ff0219169083600581111561126f5761126e613394565b5b02179055506112e8815f015f9054906101000a900473ffffffffffffffffffffffffffffffffffffffff168260030154836002015f9054906101000a900473ffffffffffffffffffffffffffffffffffffffff1673ffffffffffffffffffffffffffffffffffffffff16612e329092919063ffffffff16565b817f7ca5472b7ea78c2c0141c5a12ee6d170cf4ce8ed06be3d22c8252ddfc7a6a2c4825f015f9054906101000a900473ffffffffffffffffffffffffffffffffffffffff1683600301546040516113409291906142bf565b60405180910390a25050565b7f000000000000000000000000000000000000000000000000000000000000000073ffffffffffffffffffffffffffffffffffffffff163373ffffffffffffffffffffffffffffffffffffffff16146113da576040517f08c379a00000000000000000000000000000000000000000000000000000000081526004016113d190614330565b60405180910390fd5b62015180811015611420576040517f08c379a000000000000000000000000000000000000000000000000000000000815260040161141790614398565b60405180910390fd5b8060028190555050565b5f60045f8381526020019081526020015f209050805f015f9054906101000a900473ffffffffffffffffffffffffffffffffffffffff1673ffffffffffffffffffffffffffffffffffffffff163373ffffffffffffffffffffffffffffffffffffffff16146114ce576040517f08c379a00000000000000000000000000000000000000000000000000000000081526004016114c5906141d1565b60405180910390fd5b5f60058111156114e1576114e0613394565b5b8160070160109054906101000a900460ff16600581111561150557611504613394565b5b14806115465750600160058111156115205761151f613394565b5b8160070160109054906101000a900460ff16600581111561154457611543613394565b5b145b611585576040517f08c379a000000000000000000000000000000000000000000000000000000000815260040161157c90614400565b60405180910390fd5b5f60055f8481526020019081526020015f2090505f8180549050116115df576040517f08c379a00000000000000000000000000000000000000000000000000000000081526004016115d690614468565b60405180910390fd5b5f60065f8581526020019081526020015f205490508180549050811061163a576040517f08c379a0000000000000000000000000000000000000000000000000000000008152600401611631906144d0565b60405180910390fd5b60065f8581526020019081526020015f205f81548092919061165b90613e29565b91905055505f82828154811061167457611673613d94565b5b905f5260205f20015490508060075f8781526020019081526020015f205f82825461169f9190613a89565b92505081905550611717846001015f9054906101000a900473ffffffffffffffffffffffffffffffffffffffff1682866002015f9054906101000a900473ffffffffffffffffffffffffffffffffffffffff1673ffffffffffffffffffffffffffffffffffffffff16612e329092919063ffffffff16565b847fd33fcd27cbfb73a2d9058c968b560ccb306500bf536133802048489ecc7355e983836040516117499291906135e1565b60405180910390a25050505050565b60015481565b5f60045f8381526020019081526020015f209050805f015f9054906101000a900473ffffffffffffffffffffffffffffffffffffffff1673ffffffffffffffffffffffffffffffffffffffff163373ffffffffffffffffffffffffffffffffffffffff1614611802576040517f08c379a00000000000000000000000000000000000000000000000000000000081526004016117f9906141d1565b60405180910390fd5b6001600581111561181657611815613394565b5b8160070160109054906101000a900460ff16600581111561183a57611839613394565b5b1461187a576040517f08c379a000000000000000000000000000000000000000000000000000000000815260040161187190614538565b60405180910390fd5b6118848183612aa5565b5050565b606060055f8381526020019081526020015f208054806020026020016040519081016040528092919081815260200182805480156118e357602002820191905f5260205f20905b8154815260200190600101908083116118cf575b50505050509050919050565b5f60045f8381526020019081526020015f2090506001600581111561191757611916613394565b5b8160070160109054906101000a900460ff16600581111561193b5761193a613394565b5b1461197b576040517f08c379a000000000000000000000000000000000000000000000000000000000815260040161197290614538565b60405180910390fd5b8060050154816007015f9054906101000a900467ffffffffffffffff1667ffffffffffffffff166119ac9190613a89565b42116119ed576040517f08c379a00000000000000000000000000000000000000000000000000000000081526004016119e4906145a0565b60405180910390fd5b6119f78183612aa5565b817f93fb721c2c02adcc629c450452332bd9fa1dfbc41825cf28709bf21e8d19363f60405160405180910390a25050565b60035481565b5f5f5f60085f8573ffffffffffffffffffffffffffffffffffffffff1673ffffffffffffffffffffffffffffffffffffffff1681526020019081526020015f206040518060800160405290815f820154815260200160018201548152602001600282015481526020016003820154815250509050806020015191505f8214611ad057816064825f0151611ac19190613ea7565b611acb91906145eb565b611ad2565b5f5b925050915091565b6101f481565b7f000000000000000000000000000000000000000000000000000000000000000073ffffffffffffffffffffffffffffffffffffffff163373ffffffffffffffffffffffffffffffffffffffff1614611b6e576040517f08c379a0000000000000000000000000000000000000000000000000000000008152600401611b6590614330565b60405180910390fd5b6101f4811115611bb3576040517f08c379a0000000000000000000000000000000000000000000000000000000008152600401611baa90614665565b60405180910390fd5b806001819055507fd10d75876659a287a59a6ccfa2e3fff42f84d94b542837acd30bc184d562de4081604051611be991906131d6565b60405180910390a150565b62093a8081565b5f60045f8381526020019081526020015f209050805f015f9054906101000a900473ffffffffffffffffffffffffffffffffffffffff1673ffffffffffffffffffffffffffffffffffffffff163373ffffffffffffffffffffffffffffffffffffffff1614611c9f576040517f08c379a0000000000000000000000000000000000000000000000000000000008152600401611c96906141d1565b60405180910390fd5b60016005811115611cb357611cb2613394565b5b8160070160109054906101000a900460ff166005811115611cd757611cd6613394565b5b14611d17576040517f08c379a0000000000000000000000000000000000000000000000000000000008152600401611d0e90614538565b60405180910390fd5b8060050154816007015f9054906101000a900467ffffffffffffffff1667ffffffffffffffff16611d489190613a89565b421115611d8a576040517f08c379a0000000000000000000000000000000000000000000000000000000008152600401611d81906146cd565b60405180910390fd5b60048160070160106101000a81548160ff02191690836005811115611db257611db1613394565b5b0217905550428160070160086101000a81548167ffffffffffffffff021916908367ffffffffffffffff160217905550817f1ef1a19b41789858403ffa89cbd451d5d7bb5c16c2bb813e19f130eba9f2bd8c42604051611e1291906146eb565b60405180910390a25050565b5f60075f8381526020019081526020015f205460045f8481526020019081526020015f2060030154611e509190614704565b9050919050565b7f000000000000000000000000000000000000000000000000000000000000000081565b6202a30081565b7f000000000000000000000000000000000000000000000000000000000000000073ffffffffffffffffffffffffffffffffffffffff163373ffffffffffffffffffffffffffffffffffffffff1614611f10576040517f08c379a0000000000000000000000000000000000000000000000000000000008152600401611f0790614330565b60405180910390fd5b5f73ffffffffffffffffffffffffffffffffffffffff168173ffffffffffffffffffffffffffffffffffffffff1603611f7e576040517f08c379a0000000000000000000000000000000000000000000000000000000008152600401611f7590614781565b60405180910390fd5b805f5f6101000a81548173ffffffffffffffffffffffffffffffffffffffff021916908373ffffffffffffffffffffffffffffffffffffffff1602179055507fe5693914d19c789bdee50a362998c0bc8d035a835f9871da5d51152f0582c34f81604051611fec9190613608565b60405180910390a150565b6008602052805f5260405f205f91509050805f0154908060010154908060020154908060030154905084565b7f000000000000000000000000000000000000000000000000000000000000000073ffffffffffffffffffffffffffffffffffffffff163373ffffffffffffffffffffffffffffffffffffffff16146120b1576040517f08c379a00000000000000000000000000000000000000000000000000000000081526004016120a890614330565b60405180910390fd5b6127108111156120f6576040517f08c379a00000000000000000000000000000000000000000000000000000000081526004016120ed906147e9565b60405180910390fd5b5f60045f8481526020019081526020015f2090506004600581111561211e5761211d613394565b5b8160070160109054906101000a900460ff16600581111561214257612141613394565b5b14612182576040517f08c379a000000000000000000000000000000000000000000000000000000000815260040161217990613a3e565b60405180910390fd5b5f60075f8581526020019081526020015f205482600301546121a49190614704565b90505f612710600154836121b89190613ea7565b6121c291906145eb565b90505f81836121d19190614704565b90505f61271086836121e39190613ea7565b6121ed91906145eb565b90505f81836121fc9190614704565b9050612710871461220e576005612211565b60025b8660070160106101000a81548160ff0219169083600581111561223757612236613394565b5b02179055506122aa5f5f9054906101000a900473ffffffffffffffffffffffffffffffffffffffff1685886002015f9054906101000a900473ffffffffffffffffffffffffffffffffffffffff1673ffffffffffffffffffffffffffffffffffffffff16612e329092919063ffffffff16565b61231b866001015f9054906101000a900473ffffffffffffffffffffffffffffffffffffffff1683886002015f9054906101000a900473ffffffffffffffffffffffffffffffffffffffff1673ffffffffffffffffffffffffffffffffffffffff16612e329092919063ffffffff16565b61238b865f015f9054906101000a900473ffffffffffffffffffffffffffffffffffffffff1682886002015f9054906101000a900473ffffffffffffffffffffffffffffffffffffffff1673ffffffffffffffffffffffffffffffffffffffff16612e329092919063ffffffff16565b6123bd866001015f9054906101000a900473ffffffffffffffffffffffffffffffffffffffff16611388891015612f8a565b877ffb8d708dcbc642d5031d27e5b7206a586cad2ff25169109774bf3dff20dc1baf876001015f9054906101000a900473ffffffffffffffffffffffffffffffffffffffff1684895f015f9054906101000a900473ffffffffffffffffffffffffffffffffffffffff16858960405161243a959493929190614807565b60405180910390a25050505050505050565b61245461303f565b60045f8381526020019081526020015f20604051806101400160405290815f82015f9054906101000a900473ffffffffffffffffffffffffffffffffffffffff1673ffffffffffffffffffffffffffffffffffffffff1673ffffffffffffffffffffffffffffffffffffffff168152602001600182015f9054906101000a900473ffffffffffffffffffffffffffffffffffffffff1673ffffffffffffffffffffffffffffffffffffffff1673ffffffffffffffffffffffffffffffffffffffff168152602001600282015f9054906101000a900473ffffffffffffffffffffffffffffffffffffffff1673ffffffffffffffffffffffffffffffffffffffff1673ffffffffffffffffffffffffffffffffffffffff16815260200160038201548152602001600482015481526020016005820154815260200160068201548152602001600782015f9054906101000a900467ffffffffffffffff1667ffffffffffffffff1667ffffffffffffffff1681526020016007820160089054906101000a900467ffffffffffffffff1667ffffffffffffffff1667ffffffffffffffff1681526020016007820160109054906101000a900460ff16600581111561261f5761261e613394565b5b600581111561263157612630613394565b5b815250509050919050565b6006602052805f5260405f205f915090505481565b5f5f9054906101000a900473ffffffffffffffffffffffffffffffffffffffff1681565b5f60045f8481526020019081526020015f209050805f015f9054906101000a900473ffffffffffffffffffffffffffffffffffffffff1673ffffffffffffffffffffffffffffffffffffffff163373ffffffffffffffffffffffffffffffffffffffff1614612719576040517f08c379a0000000000000000000000000000000000000000000000000000000008152600401612710906141d1565b60405180910390fd5b6002600581111561272d5761272c613394565b5b8160070160109054906101000a900460ff16600581111561275157612750613394565b5b1480612791575060058081111561276b5761276a613394565b5b8160070160109054906101000a900460ff16600581111561278f5761278e613394565b5b145b6127d0576040517f08c379a00000000000000000000000000000000000000000000000000000000081526004016127c7906148a2565b60405180910390fd5b60095f8481526020019081526020015f205f9054906101000a900460ff161561282e576040517f08c379a00000000000000000000000000000000000000000000000000000000081526004016128259061490a565b60405180910390fd5b60018260ff1610158015612846575060058260ff1611155b612885576040517f08c379a000000000000000000000000000000000000000000000000000000000815260040161287c90614972565b60405180910390fd5b600160095f8581526020019081526020015f205f6101000a81548160ff0219169083151502179055505f60085f836001015f9054906101000a900473ffffffffffffffffffffffffffffffffffffffff1673ffffffffffffffffffffffffffffffffffffffff1673ffffffffffffffffffffffffffffffffffffffff1681526020019081526020015f2090508260ff16815f015f8282546129269190613a89565b92505081905550806001015f81548092919061294190613e29565b9190505550816001015f9054906101000a900473ffffffffffffffffffffffffffffffffffffffff1673ffffffffffffffffffffffffffffffffffffffff16847f2a110e77b9257f09a2767284c3c4334184865b91e7379eba30302c64d3414080856040516129b0919061499f565b60405180910390a350505050565b61546081565b6009602052805f5260405f205f915054906101000a900460ff1681565b60025481565b5f5f5f5f5f60085f8773ffffffffffffffffffffffffffffffffffffffff1673ffffffffffffffffffffffffffffffffffffffff1681526020019081526020015f206040518060800160405290815f8201548152602001600182015481526020016002820154815260200160038201548152505090508060400151945080606001519350806020015191505f8214612a9957816064825f0151612a8a9190613ea7565b612a9491906145eb565b612a9b565b5f5b9250509193509193565b60028260070160106101000a81548160ff02191690836005811115612acd57612acc613394565b5b02179055505f60075f8381526020019081526020015f20548360030154612af49190614704565b90505f61271060015483612b089190613ea7565b612b1291906145eb565b90505f8183612b219190614704565b9050612b915f5f9054906101000a900473ffffffffffffffffffffffffffffffffffffffff1683876002015f9054906101000a900473ffffffffffffffffffffffffffffffffffffffff1673ffffffffffffffffffffffffffffffffffffffff16612e329092919063ffffffff16565b612c02856001015f9054906101000a900473ffffffffffffffffffffffffffffffffffffffff1682876002015f9054906101000a900473ffffffffffffffffffffffffffffffffffffffff1673ffffffffffffffffffffffffffffffffffffffff16612e329092919063ffffffff16565b60085f866001015f9054906101000a900473ffffffffffffffffffffffffffffffffffffffff1673ffffffffffffffffffffffffffffffffffffffff1673ffffffffffffffffffffffffffffffffffffffff1681526020019081526020015f206002015f815480929190612c7590613e29565b9190505550837ff86dbbaae73a38eba376327ec68def0678d91d952b4a18aa86d880f199632bd9866001015f9054906101000a900473ffffffffffffffffffffffffffffffffffffffff168385604051612cd1939291906149b8565b60405180910390a25050505050565b5f5f8573ffffffffffffffffffffffffffffffffffffffff166323b872dd60e01b868686604051602401612d16939291906149ed565b604051602081830303815290604052907bffffffffffffffffffffffffffffffffffffffffffffffffffffffff19166020820180517bffffffffffffffffffffffffffffffffffffffffffffffffffffffff8381831617835250505050604051612d809190614a74565b5f604051808303815f865af19150503d805f8114612db9576040519150601f19603f3d011682016040523d82523d5f602084013e612dbe565b606091505b5091509150818015612deb57505f81511480612dea575080806020019051810190612de99190614ab4565b5b5b612e2a576040517f08c379a0000000000000000000000000000000000000000000000000000000008152600401612e2190614b29565b60405180910390fd5b505050505050565b5f810315612f85575f5f8473ffffffffffffffffffffffffffffffffffffffff1663a9059cbb60e01b8585604051602401612e6e9291906142bf565b604051602081830303815290604052907bffffffffffffffffffffffffffffffffffffffffffffffffffffffff19166020820180517bffffffffffffffffffffffffffffffffffffffffffffffffffffffff8381831617835250505050604051612ed89190614a74565b5f604051808303815f865af19150503d805f8114612f11576040519150601f19603f3d011682016040523d82523d5f602084013e612f16565b606091505b5091509150818015612f4357505f81511480612f42575080806020019051810190612f419190614ab4565b5b5b612f82576040517f08c379a0000000000000000000000000000000000000000000000000000000008152600401612f7990614b91565b60405180910390fd5b50505b505050565b60085f8373ffffffffffffffffffffffffffffffffffffffff1673ffffffffffffffffffffffffffffffffffffffff1681526020019081526020015f206003015f815480929190612fda90613e29565b9190505550801561303b5760085f8373ffffffffffffffffffffffffffffffffffffffff1673ffffffffffffffffffffffffffffffffffffffff1681526020019081526020015f206002015f81548092919061303590613e29565b91905055505b5050565b6040518061014001604052805f73ffffffffffffffffffffffffffffffffffffffff1681526020015f73ffffffffffffffffffffffffffffffffffffffff1681526020015f73ffffffffffffffffffffffffffffffffffffffff1681526020015f81526020015f81526020015f81526020015f81526020015f67ffffffffffffffff1681526020015f67ffffffffffffffff1681526020015f60058111156130ea576130e9613394565b5b81525090565b5f5ffd5b5f5ffd5b5f819050919050565b61310a816130f8565b8114613114575f5ffd5b50565b5f8135905061312581613101565b92915050565b5f819050919050565b61313d8161312b565b8114613147575f5ffd5b50565b5f8135905061315881613134565b92915050565b5f5f60408385031215613174576131736130f0565b5b5f61318185828601613117565b92505060206131928582860161314a565b9150509250929050565b5f602082840312156131b1576131b06130f0565b5b5f6131be84828501613117565b91505092915050565b6131d0816130f8565b82525050565b5f6020820190506131e95f8301846131c7565b92915050565b5f73ffffffffffffffffffffffffffffffffffffffff82169050919050565b5f613218826131ef565b9050919050565b6132288161320e565b8114613232575f5ffd5b50565b5f813590506132438161321f565b92915050565b5f5ffd5b5f5ffd5b5f5ffd5b5f5f83601f84011261326a57613269613249565b5b8235905067ffffffffffffffff8111156132875761328661324d565b5b6020830191508360208202830111156132a3576132a2613251565b5b9250929050565b5f5f5f5f5f5f5f60c0888a0312156132c5576132c46130f0565b5b5f6132d28a828b01613235565b97505060206132e38a828b01613235565b96505060406132f48a828b01613117565b95505060606133058a828b01613117565b945050608088013567ffffffffffffffff811115613326576133256130f4565b5b6133328a828b01613255565b935093505060a06133458a828b01613117565b91505092959891949750929550565b61335d8161320e565b82525050565b61336c8161312b565b82525050565b5f67ffffffffffffffff82169050919050565b61338e81613372565b82525050565b7f4e487b71000000000000000000000000000000000000000000000000000000005f52602160045260245ffd5b600681106133d2576133d1613394565b5b50565b5f8190506133e2826133c1565b919050565b5f6133f1826133d5565b9050919050565b613401816133e7565b82525050565b5f6101408201905061341b5f83018d613354565b613428602083018c613354565b613435604083018b613354565b613442606083018a6131c7565b61344f60808301896131c7565b61345c60a08301886131c7565b61346960c0830187613363565b61347660e0830186613385565b613484610100830185613385565b6134926101208301846133f8565b9b9a5050505050505050505050565b5f5f604083850312156134b7576134b66130f0565b5b5f6134c485828601613117565b92505060206134d585828601613117565b9150509250929050565b5f81519050919050565b5f82825260208201905092915050565b5f819050602082019050919050565b613511816130f8565b82525050565b5f6135228383613508565b60208301905092915050565b5f602082019050919050565b5f613544826134df565b61354e81856134e9565b9350613559836134f9565b805f5b838110156135895781516135708882613517565b975061357b8361352e565b92505060018101905061355c565b5085935050505092915050565b5f6020820190508181035f8301526135ae818461353a565b905092915050565b5f602082840312156135cb576135ca6130f0565b5b5f6135d884828501613235565b91505092915050565b5f6040820190506135f45f8301856131c7565b61360160208301846131c7565b9392505050565b5f60208201905061361b5f830184613354565b92915050565b5f6080820190506136345f8301876131c7565b61364160208301866131c7565b61364e60408301856131c7565b61365b60608301846131c7565b95945050505050565b61366d8161320e565b82525050565b61367c8161312b565b82525050565b61368b81613372565b82525050565b61369a816133e7565b82525050565b61014082015f8201516136b55f850182613664565b5060208201516136c86020850182613664565b5060408201516136db6040850182613664565b5060608201516136ee6060850182613508565b5060808201516137016080850182613508565b5060a082015161371460a0850182613508565b5060c082015161372760c0850182613673565b5060e082015161373a60e0850182613682565b5061010082015161374f610100850182613682565b50610120820151613764610120850182613691565b50505050565b5f6101408201905061377e5f8301846136a0565b92915050565b5f60ff82169050919050565b61379981613784565b81146137a3575f5ffd5b50565b5f813590506137b481613790565b92915050565b5f5f604083850312156137d0576137cf6130f0565b5b5f6137dd85828601613117565b92505060206137ee858286016137a6565b9150509250929050565b5f8115159050919050565b61380c816137f8565b82525050565b5f6020820190506138255f830184613803565b92915050565b5f82825260208201905092915050565b7f4e6f742073656c6c6572000000000000000000000000000000000000000000005f82015250565b5f61386f600a8361382b565b915061387a8261383b565b602082019050919050565b5f6020820190508181035f83015261389c81613863565b9050919050565b7f416c7265616479207375626d69747465640000000000000000000000000000005f82015250565b5f6138d760118361382b565b91506138e2826138a3565b602082019050919050565b5f6020820190508181035f830152613904816138cb565b9050919050565b7f446561646c696e652070617373656400000000000000000000000000000000005f82015250565b5f61393f600f8361382b565b915061394a8261390b565b602082019050919050565b5f6020820190508181035f83015261396c81613933565b9050919050565b7f456d7074792068617368000000000000000000000000000000000000000000005f82015250565b5f6139a7600a8361382b565b91506139b282613973565b602082019050919050565b5f6020820190508181035f8301526139d48161399b565b9050919050565b5f6020820190506139ee5f830184613363565b92915050565b7f4e6f7420646973707574656400000000000000000000000000000000000000005f82015250565b5f613a28600c8361382b565b9150613a33826139f4565b602082019050919050565b5f6020820190508181035f830152613a5581613a1c565b9050919050565b7f4e487b71000000000000000000000000000000000000000000000000000000005f52601160045260245ffd5b5f613a93826130f8565b9150613a9e836130f8565b9250828201905080821115613ab657613ab5613a5c565b5b92915050565b7f417262697465722074696d656f7574206e6f74207265616368656400000000005f82015250565b5f613af0601b8361382b565b9150613afb82613abc565b602082019050919050565b5f6020820190508181035f830152613b1d81613ae4565b9050919050565b7f446561646c696e6520696e2070617374000000000000000000000000000000005f82015250565b5f613b5860108361382b565b9150613b6382613b24565b602082019050919050565b5f6020820190508181035f830152613b8581613b4c565b9050919050565b7f416d6f756e74207a65726f0000000000000000000000000000000000000000005f82015250565b5f613bc0600b8361382b565b9150613bcb82613b8c565b602082019050919050565b5f6020820190508181035f830152613bed81613bb4565b9050919050565b7f496e76616c69642073656c6c65720000000000000000000000000000000000005f82015250565b5f613c28600e8361382b565b9150613c3382613bf4565b602082019050919050565b5f6020820190508181035f830152613c5581613c1c565b9050919050565b7f42757965722063616e6e6f742062652073656c6c6572000000000000000000005f82015250565b5f613c9060168361382b565b9150613c9b82613c5c565b602082019050919050565b5f6020820190508181035f830152613cbd81613c84565b9050919050565b7f57696e646f7720746f6f2073686f727420286d696e20366829000000000000005f82015250565b5f613cf860198361382b565b9150613d0382613cc4565b602082019050919050565b5f6020820190508181035f830152613d2581613cec565b9050919050565b7f57696e646f7720746f6f206c6f6e6720286d61782037642900000000000000005f82015250565b5f613d6060188361382b565b9150613d6b82613d2c565b602082019050919050565b5f6020820190508181035f830152613d8d81613d54565b9050919050565b7f4e487b71000000000000000000000000000000000000000000000000000000005f52603260045260245ffd5b7f4d696c6573746f6e657320213d20616d6f756e740000000000000000000000005f82015250565b5f613df560148361382b565b9150613e0082613dc1565b602082019050919050565b5f6020820190508181035f830152613e2281613de9565b9050919050565b5f613e33826130f8565b91507fffffffffffffffffffffffffffffffffffffffffffffffffffffffffffffffff8203613e6557613e64613a5c565b5b600182019050919050565b7f4e487b71000000000000000000000000000000000000000000000000000000005f52604160045260245ffd5b5f81549050919050565b5f613eb1826130f8565b9150613ebc836130f8565b9250828202613eca816130f8565b91508282048414831517613ee157613ee0613a5c565b5b5092915050565b5f8190506001806001038301049050919050565b5f819050815f5260205f209050919050565b5f82821b905092915050565b5f60088302613f497fffffffffffffffffffffffffffffffffffffffffffffffffffffffffffffffff82613f0e565b613f538683613f0e565b95508019841693508086168417925050509392505050565b5f819050919050565b5f613f8e613f89613f84846130f8565b613f6b565b6130f8565b9050919050565b5f819050919050565b613fa783613f74565b613fbb613fb382613f95565b848454613f1a565b825550505050565b5f5f905090565b613fd2613fc3565b613fdd818484613f9e565b505050565b5f5b8281101561400357613ff85f828401613fca565b600181019050613fe4565b505050565b8183101561403f5761401982613ee8565b61402284613ee8565b61402b83613efc565b81810161403a83850382613fe2565b505050505b505050565b6801000000000000000082111561405e5761405d613e70565b5b61406781613e9d565b828255614075838284614008565b505050565b5f82905092915050565b5f813561409081613101565b80915050919050565b5f819050919050565b6140ac838361407a565b67ffffffffffffffff8111156140c5576140c4613e70565b5b6140cf8183614044565b6140d883614099565b6140e183613efc565b600183045f5b8181101561411e575f6140f985614084565b61410281613f95565b80925060208701965050508082850155506001810190506140e7565b5050505050505050565b5f60c08201905061413b5f830189613354565b6141486020830188613354565b6141556040830187613354565b61416260608301866131c7565b61416f60808301856131c7565b61417c60a08301846131c7565b979650505050505050565b7f4e6f7420627579657200000000000000000000000000000000000000000000005f82015250565b5f6141bb60098361382b565b91506141c682614187565b602082019050919050565b5f6020820190508181035f8301526141e8816141af565b9050919050565b7f576f726b20776173207375626d697474656400000000000000000000000000005f82015250565b5f61422360128361382b565b915061422e826141ef565b602082019050919050565b5f6020820190508181035f83015261425081614217565b9050919050565b7f446561646c696e65206e6f7420706173736564000000000000000000000000005f82015250565b5f61428b60138361382b565b915061429682614257565b602082019050919050565b5f6020820190508181035f8301526142b88161427f565b9050919050565b5f6040820190506142d25f830185613354565b6142df60208301846131c7565b9392505050565b7f4e6f7420617262697465720000000000000000000000000000000000000000005f82015250565b5f61431a600b8361382b565b9150614325826142e6565b602082019050919050565b5f6020820190508181035f8301526143478161430e565b9050919050565b7f54696d656f757420746f6f2073686f72740000000000000000000000000000005f82015250565b5f61438260118361382b565b915061438d8261434e565b602082019050919050565b5f6020820190508181035f8301526143af81614376565b9050919050565b7f4a6f6220636c6f736564000000000000000000000000000000000000000000005f82015250565b5f6143ea600a8361382b565b91506143f5826143b6565b602082019050919050565b5f6020820190508181035f830152614417816143de565b9050919050565b7f4e6f206d696c6573746f6e6573000000000000000000000000000000000000005f82015250565b5f614452600d8361382b565b915061445d8261441e565b602082019050919050565b5f6020820190508181035f83015261447f81614446565b9050919050565b7f416c6c206d696c6573746f6e65732072656c65617365640000000000000000005f82015250565b5f6144ba60178361382b565b91506144c582614486565b602082019050919050565b5f6020820190508181035f8301526144e7816144ae565b9050919050565b7f576f726b206e6f74207375626d697474656400000000000000000000000000005f82015250565b5f61452260128361382b565b915061452d826144ee565b602082019050919050565b5f6020820190508181035f83015261454f81614516565b9050919050565b7f57696e646f77207374696c6c206f70656e0000000000000000000000000000005f82015250565b5f61458a60118361382b565b915061459582614556565b602082019050919050565b5f6020820190508181035f8301526145b78161457e565b9050919050565b7f4e487b71000000000000000000000000000000000000000000000000000000005f52601260045260245ffd5b5f6145f5826130f8565b9150614600836130f8565b9250826146105761460f6145be565b5b828204905092915050565b7f46656520746f6f206869676800000000000000000000000000000000000000005f82015250565b5f61464f600c8361382b565b915061465a8261461b565b602082019050919050565b5f6020820190508181035f83015261467c81614643565b9050919050565b7f57696e646f7720636c6f736564000000000000000000000000000000000000005f82015250565b5f6146b7600d8361382b565b91506146c282614683565b602082019050919050565b5f6020820190508181035f8301526146e4816146ab565b9050919050565b5f6020820190506146fe5f830184613385565b92915050565b5f61470e826130f8565b9150614719836130f8565b925082820390508181111561473157614730613a5c565b5b92915050565b7f496e76616c6964206164647265737300000000000000000000000000000000005f82015250565b5f61476b600f8361382b565b915061477682614737565b602082019050919050565b5f6020820190508181035f8301526147988161475f565b9050919050565b7f627073203e2031303030300000000000000000000000000000000000000000005f82015250565b5f6147d3600b8361382b565b91506147de8261479f565b602082019050919050565b5f6020820190508181035f830152614800816147c7565b9050919050565b5f60a08201905061481a5f830188613354565b61482760208301876131c7565b6148346040830186613354565b61484160608301856131c7565b61484e60808301846131c7565b9695505050505050565b7f4a6f62206e6f7420636f6d706c657465000000000000000000000000000000005f82015250565b5f61488c60108361382b565b915061489782614858565b602082019050919050565b5f6020820190508181035f8301526148b981614880565b9050919050565b7f416c7265616479207261746564000000000000000000000000000000000000005f82015250565b5f6148f4600d8361382b565b91506148ff826148c0565b602082019050919050565b5f6020820190508181035f830152614921816148e8565b9050919050565b7f526174696e67206d75737420626520312d3500000000000000000000000000005f82015250565b5f61495c60128361382b565b915061496782614928565b602082019050919050565b5f6020820190508181035f83015261498981614950565b9050919050565b61499981613784565b82525050565b5f6020820190506149b25f830184614990565b92915050565b5f6060820190506149cb5f830186613354565b6149d860208301856131c7565b6149e560408301846131c7565b949350505050565b5f606082019050614a005f830186613354565b614a0d6020830185613354565b614a1a60408301846131c7565b949350505050565b5f81519050919050565b5f81905092915050565b8281835e5f83830152505050565b5f614a4e82614a22565b614a588185614a2c565b9350614a68818560208601614a36565b80840191505092915050565b5f614a7f8284614a44565b915081905092915050565b614a93816137f8565b8114614a9d575f5ffd5b50565b5f81519050614aae81614a8a565b92915050565b5f60208284031215614ac957614ac86130f0565b5b5f614ad684828501614aa0565b91505092915050565b7f5472616e7366657246726f6d206661696c6564000000000000000000000000005f82015250565b5f614b1360138361382b565b9150614b1e82614adf565b602082019050919050565b5f6020820190508181035f830152614b4081614b07565b9050919050565b7f5472616e73666572206661696c656400000000000000000000000000000000005f82015250565b5f614b7b600f8361382b565b9150614b8682614b47565b602082019050919050565b5f6020820190508181035f830152614ba881614b6f565b905091905056fea2646970667358221220ba4a6699e3deedd855c367165567b5af59e639bcb8f36c4c8b044295e972aeb864736f6c63430008210033","linkReferences":{}},"methodIdentifiers":{"ARBITER()":"904cae5c","DEFAULT_DISPUTE_WINDOW()":"99890895","MAX_DISPUTE_WINDOW()":"80cbc6fa","MAX_PROTOCOL_FEE_BPS()":"6d947e4b","MIN_DISPUTE_WINDOW()":"cbeab516","arbiterTimeoutRelease(uint256)":"10291263","arbiterTimeoutSeconds()":"d0e7efee","autoRelease(uint256)":"459b860e","createJob(address,address,uint256,uint256,uint256[],uint256)":"121adc9f","dispute(uint256)":"86d6282c","feeCollector()":"c415b95c","getJob(uint256)":"bf22c457","getMilestones(uint256)":"42c549c0","jobCount()":"4c5d8a0f","jobRated(uint256)":"cfa56e21","jobs(uint256)":"180aedf3","milestones(uint256,uint256)":"1c376c63","nextMilestone(uint256)":"c04b45e9","protocolFeeBps()":"35659fb8","rateJob(uint256,uint8)":"c8c3487b","refund(uint256)":"278ecde1","release(uint256)":"37bdc99b","releaseMilestone(uint256)":"317debf5","releasedAmount(uint256)":"111730d1","remainingAmount(uint256)":"87bda8f2","reputation(address)":"b9f79451","resolveDispute(uint256,uint256)":"bdc84ac3","sellerRating(address)":"6bcaaa78","sellerStats(address)":"e5b0117a","setArbiterTimeout(uint256)":"2f3d1729","setFeeCollector(address)":"a42dce80","setProtocolFee(uint256)":"787dce3d","submitWork(uint256,bytes32)":"0a9eeded"},"id":0}