{"abi":[{"type":"constructor","inputs":[{"name":"_reputationSource","type":"address","internalType":"address"}],"stateMutability":"nonpayable"},{"type":"function","name":"checkObligation","inputs":[{"name":"obligation","type":"tuple","internalType":"struct Attestation","components":[{"name":"uid","type":"bytes32","internalType":"bytes32"},{"name":"schema","type":"bytes32","internalType":"bytes32"},{"name":"time","type":"uint64","internalType":"uint64"},{"name":"expirationTime","type":"uint64","internalType":"uint64"},{"name":"revocationTime","type":"uint64","internalType":"uint64"},{"name":"refUID","type":"bytes32","internalType":"bytes32"},{"name":"attester","type":"address","internalType":"address"},{"name":"recipient","type":"address","internalType":"address"},{"name":"revocable","type":"bool","internalType":"bool"},{"name":"data","type":"bytes","internalType":"bytes"}]},{"name":"demand","type":"bytes","internalType":"bytes"},{"name":"fulfilling","type":"bytes32","internalType":"bytes32"}],"outputs":[{"name":"","type":"bool","internalType":"bool"}],"stateMutability":"view"},{"type":"function","name":"encodeDemand","inputs":[{"name":"req","type":"tuple","internalType":"struct ReputationArbiter.ReputationDemand","components":[{"name":"seller","type":"address","internalType":"address"},{"name":"minRatingX100","type":"uint256","internalType":"uint256"},{"name":"minCompletedJobs","type":"uint256","internalType":"uint256"},{"name":"maxDisputeRatioBps","type":"uint256","internalType":"uint256"},{"name":"minRatingCount","type":"uint256","internalType":"uint256"}]}],"outputs":[{"name":"","type":"bytes","internalType":"bytes"}],"stateMutability":"pure"},{"type":"function","name":"reputationSource","inputs":[],"outputs":[{"name":"","type":"address","internalType":"contract IAgentEscrowReputation"}],"stateMutability":"view"},{"type":"function","name":"wouldPass","inputs":[{"name":"req","type":"tuple","internalType":"struct ReputationArbiter.ReputationDemand","components":[{"name":"seller","type":"address","internalType":"address"},{"name":"minRatingX100","type":"uint256","internalType":"uint256"},{"name":"minCompletedJobs","type":"uint256","internalType":"uint256"},{"name":"maxDisputeRatioBps","type":"uint256","internalType":"uint256"},{"name":"minRatingCount","type":"uint256","internalType":"uint256"}]}],"outputs":[{"name":"","type":"bool","internalType":"bool"}],"stateMutability":"view"},{"type":"event","name":"ReputationChecked","inputs":[{"name":"seller","type":"address","indexed":true,"internalType":"address"},{"name":"passed","type":"bool","indexed":false,"internalType":"bool"},{"name":"avgRatingX100","type":"uint256","indexed":false,"internalType":"uint256"},{"name":"completedJobs","type":"uint256","indexed":false,"internalType":"uint256"},{"name":"disputeRatioBps","type":"uint256","indexed":false,"internalType":"uint256"}],"anonymous":false}],"bytecode":{"object":"0x60a060405234801561000f575f5ffd5b50604051610ecf380380610ecf833981810160405281019061003191906100c9565b8073ffffffffffffffffffffffffffffffffffffffff1660808173ffffffffffffffffffffffffffffffffffffffff1681525050506100f4565b5f5ffd5b5f73ffffffffffffffffffffffffffffffffffffffff82169050919050565b5f6100988261006f565b9050919050565b6100a88161008e565b81146100b2575f5ffd5b50565b5f815190506100c38161009f565b92915050565b5f602082840312156100de576100dd61006b565b5b5f6100eb848285016100b5565b91505092915050565b608051610db66101195f395f818160fe0152818161016701526103050152610db65ff3fe608060405234801561000f575f5ffd5b506004361061004a575f3560e01c8063328da17b1461004e578063a27ba8dc1461006c578063e6c9714d1461009c578063fc28cbdb146100cc575b5f5ffd5b6100566100fc565b6040516100639190610509565b60405180910390f35b610086600480360381019061008191906106ba565b610120565b6040516100939190610745565b60405180910390f35b6100b660048036038101906100b191906109cd565b610149565b6040516100c39190610a64565b60405180910390f35b6100e660048036038101906100e191906106ba565b6102fe565b6040516100f39190610a64565b60405180910390f35b7f000000000000000000000000000000000000000000000000000000000000000081565b6060816040516020016101339190610b01565b6040516020818303038152906040529050919050565b5f5f8380602001905181019061015f9190610bcb565b90505f5f5f5f7f000000000000000000000000000000000000000000000000000000000000000073ffffffffffffffffffffffffffffffffffffffff1663e5b0117a865f01516040518263ffffffff1660e01b81526004016101c19190610c05565b608060405180830381865afa1580156101dc573d5f5f3e3d5ffd5b505050506040513d601f19601f820116820180604052508101906102009190610c1e565b93509350935093505f856040015111801561021e5750846040015184105b15610230575f955050505050506102f7565b5f85608001511180156102465750846080015181105b15610258575f955050505050506102f7565b5f856020015111801561026a57505f81115b80156102795750846020015182105b1561028b575f955050505050506102f7565b612710856060015110801561029f57505f84115b156102ed575f83856102b19190610caf565b90505f81612710866102c39190610ce2565b6102cd9190610d50565b905086606001518111156102ea575f9750505050505050506102f7565b50505b6001955050505050505b9392505050565b5f5f5f5f5f7f000000000000000000000000000000000000000000000000000000000000000073ffffffffffffffffffffffffffffffffffffffff1663e5b0117a875f01516040518263ffffffff1660e01b815260040161035f9190610c05565b608060405180830381865afa15801561037a573d5f5f3e3d5ffd5b505050506040513d601f19601f8201168201806040525081019061039e9190610c1e565b93509350935093505f86604001511180156103bc5750856040015184105b156103cd575f94505050505061048a565b5f86608001511180156103e35750856080015181105b156103f4575f94505050505061048a565b5f866020015111801561040657505f81115b80156104155750856020015182105b15610426575f94505050505061048a565b612710866060015110801561043a57505f84115b15610481575f838561044c9190610caf565b9050866060015181612710866104629190610ce2565b61046c9190610d50565b111561047f575f9550505050505061048a565b505b60019450505050505b919050565b5f73ffffffffffffffffffffffffffffffffffffffff82169050919050565b5f819050919050565b5f6104d16104cc6104c78461048f565b6104ae565b61048f565b9050919050565b5f6104e2826104b7565b9050919050565b5f6104f3826104d8565b9050919050565b610503816104e9565b82525050565b5f60208201905061051c5f8301846104fa565b92915050565b5f604051905090565b5f5ffd5b5f5ffd5b5f5ffd5b5f601f19601f8301169050919050565b7f4e487b71000000000000000000000000000000000000000000000000000000005f52604160045260245ffd5b61057d82610537565b810181811067ffffffffffffffff8211171561059c5761059b610547565b5b80604052505050565b5f6105ae610522565b90506105ba8282610574565b919050565b5f5ffd5b5f6105cd8261048f565b9050919050565b6105dd816105c3565b81146105e7575f5ffd5b50565b5f813590506105f8816105d4565b92915050565b5f819050919050565b610610816105fe565b811461061a575f5ffd5b50565b5f8135905061062b81610607565b92915050565b5f60a0828403121561064657610645610533565b5b61065060a06105a5565b90505f61065f848285016105ea565b5f8301525060206106728482850161061d565b60208301525060406106868482850161061d565b604083015250606061069a8482850161061d565b60608301525060806106ae8482850161061d565b60808301525092915050565b5f60a082840312156106cf576106ce61052b565b5b5f6106dc84828501610631565b91505092915050565b5f81519050919050565b5f82825260208201905092915050565b8281835e5f83830152505050565b5f610717826106e5565b61072181856106ef565b93506107318185602086016106ff565b61073a81610537565b840191505092915050565b5f6020820190508181035f83015261075d818461070d565b905092915050565b5f819050919050565b61077781610765565b8114610781575f5ffd5b50565b5f813590506107928161076e565b92915050565b5f67ffffffffffffffff82169050919050565b6107b481610798565b81146107be575f5ffd5b50565b5f813590506107cf816107ab565b92915050565b5f8115159050919050565b6107e9816107d5565b81146107f3575f5ffd5b50565b5f81359050610804816107e0565b92915050565b5f5ffd5b5f5ffd5b5f67ffffffffffffffff82111561082c5761082b610547565b5b61083582610537565b9050602081019050919050565b828183375f83830152505050565b5f61086261085d84610812565b6105a5565b90508281526020810184848401111561087e5761087d61080e565b5b610889848285610842565b509392505050565b5f82601f8301126108a5576108a461080a565b5b81356108b5848260208601610850565b91505092915050565b5f61014082840312156108d4576108d3610533565b5b6108df6101406105a5565b90505f6108ee84828501610784565b5f83015250602061090184828501610784565b6020830152506040610915848285016107c1565b6040830152506060610929848285016107c1565b606083015250608061093d848285016107c1565b60808301525060a061095184828501610784565b60a08301525060c0610965848285016105ea565b60c08301525060e0610979848285016105ea565b60e08301525061010061098e848285016107f6565b6101008301525061012082013567ffffffffffffffff8111156109b4576109b36105bf565b5b6109c084828501610891565b6101208301525092915050565b5f5f5f606084860312156109e4576109e361052b565b5b5f84013567ffffffffffffffff811115610a0157610a0061052f565b5b610a0d868287016108be565b935050602084013567ffffffffffffffff811115610a2e57610a2d61052f565b5b610a3a86828701610891565b9250506040610a4b86828701610784565b9150509250925092565b610a5e816107d5565b82525050565b5f602082019050610a775f830184610a55565b92915050565b610a86816105c3565b82525050565b610a95816105fe565b82525050565b60a082015f820151610aaf5f850182610a7d565b506020820151610ac26020850182610a8c565b506040820151610ad56040850182610a8c565b506060820151610ae86060850182610a8c565b506080820151610afb6080850182610a8c565b50505050565b5f60a082019050610b145f830184610a9b565b92915050565b5f81519050610b28816105d4565b92915050565b5f81519050610b3c81610607565b92915050565b5f60a08284031215610b5757610b56610533565b5b610b6160a06105a5565b90505f610b7084828501610b1a565b5f830152506020610b8384828501610b2e565b6020830152506040610b9784828501610b2e565b6040830152506060610bab84828501610b2e565b6060830152506080610bbf84828501610b2e565b60808301525092915050565b5f60a08284031215610be057610bdf61052b565b5b5f610bed84828501610b42565b91505092915050565b610bff816105c3565b82525050565b5f602082019050610c185f830184610bf6565b92915050565b5f5f5f5f60808587031215610c3657610c3561052b565b5b5f610c4387828801610b2e565b9450506020610c5487828801610b2e565b9350506040610c6587828801610b2e565b9250506060610c7687828801610b2e565b91505092959194509250565b7f4e487b71000000000000000000000000000000000000000000000000000000005f52601160045260245ffd5b5f610cb9826105fe565b9150610cc4836105fe565b9250828201905080821115610cdc57610cdb610c82565b5b92915050565b5f610cec826105fe565b9150610cf7836105fe565b9250828202610d05816105fe565b91508282048414831517610d1c57610d1b610c82565b5b5092915050565b7f4e487b71000000000000000000000000000000000000000000000000000000005f52601260045260245ffd5b5f610d5a826105fe565b9150610d65836105fe565b925082610d7557610d74610d23565b5b82820490509291505056fea2646970667358221220db9fdd3cd8e9ab52ca7a48ccc0153f1679e51672ba185a86026023698a981d5264736f6c63430008210033","linkReferences":{}},"methodIdentifiers":{"checkObligation((bytes32,bytes32,uint64,uint64,uint64,bytes32,address,address,bool,bytes),bytes,bytes32)":"e6c9714d","encodeDemand((address,uint256,uint256,uint256,uint256))":"a27ba8dc","reputationSource()":"328da17b","wouldPass((address,uint256,uint256,uint256,uint256))":"fc28cbdb"},"id":1}